{
  "contractName": "ClimateRewardNftV2",
  "abi": [
    {
      "inputs": [],
      "stateMutability": "nonpayable",
      "type": "constructor"
    },
    {
      "anonymous": false,
      "inputs": [
        {
          "indexed": true,
          "internalType": "address",
          "name": "account",
          "type": "address"
        },
        {
          "indexed": true,
          "internalType": "address",
          "name": "operator",
          "type": "address"
        },
        {
          "indexed": false,
          "internalType": "bool",
          "name": "approved",
          "type": "bool"
        }
      ],
      "name": "ApprovalForAll",
      "type": "event"
    },
    {
      "anonymous": false,
      "inputs": [
        {
          "indexed": true,
          "internalType": "address",
          "name": "previousOwner",
          "type": "address"
        },
        {
          "indexed": true,
          "internalType": "address",
          "name": "newOwner",
          "type": "address"
        }
      ],
      "name": "OwnershipTransferred",
      "type": "event"
    },
    {
      "anonymous": false,
      "inputs": [
        {
          "indexed": true,
          "internalType": "address",
          "name": "operator",
          "type": "address"
        },
        {
          "indexed": true,
          "internalType": "address",
          "name": "from",
          "type": "address"
        },
        {
          "indexed": true,
          "internalType": "address",
          "name": "to",
          "type": "address"
        },
        {
          "indexed": false,
          "internalType": "uint256[]",
          "name": "ids",
          "type": "uint256[]"
        },
        {
          "indexed": false,
          "internalType": "uint256[]",
          "name": "values",
          "type": "uint256[]"
        }
      ],
      "name": "TransferBatch",
      "type": "event"
    },
    {
      "anonymous": false,
      "inputs": [
        {
          "indexed": true,
          "internalType": "address",
          "name": "operator",
          "type": "address"
        },
        {
          "indexed": true,
          "internalType": "address",
          "name": "from",
          "type": "address"
        },
        {
          "indexed": true,
          "internalType": "address",
          "name": "to",
          "type": "address"
        },
        {
          "indexed": false,
          "internalType": "uint256",
          "name": "id",
          "type": "uint256"
        },
        {
          "indexed": false,
          "internalType": "uint256",
          "name": "value",
          "type": "uint256"
        }
      ],
      "name": "TransferSingle",
      "type": "event"
    },
    {
      "anonymous": false,
      "inputs": [
        {
          "indexed": false,
          "internalType": "string",
          "name": "value",
          "type": "string"
        },
        {
          "indexed": true,
          "internalType": "uint256",
          "name": "id",
          "type": "uint256"
        }
      ],
      "name": "URI",
      "type": "event"
    },
    {
      "inputs": [],
      "name": "RANDOM",
      "outputs": [
        {
          "internalType": "uint256",
          "name": "",
          "type": "uint256"
        }
      ],
      "stateMutability": "view",
      "type": "function"
    },
    {
      "inputs": [
        {
          "internalType": "address",
          "name": "account",
          "type": "address"
        },
        {
          "internalType": "uint256",
          "name": "id",
          "type": "uint256"
        }
      ],
      "name": "balanceOf",
      "outputs": [
        {
          "internalType": "uint256",
          "name": "",
          "type": "uint256"
        }
      ],
      "stateMutability": "view",
      "type": "function"
    },
    {
      "inputs": [
        {
          "internalType": "address[]",
          "name": "accounts",
          "type": "address[]"
        },
        {
          "internalType": "uint256[]",
          "name": "ids",
          "type": "uint256[]"
        }
      ],
      "name": "balanceOfBatch",
      "outputs": [
        {
          "internalType": "uint256[]",
          "name": "",
          "type": "uint256[]"
        }
      ],
      "stateMutability": "view",
      "type": "function"
    },
    {
      "inputs": [
        {
          "internalType": "address",
          "name": "account",
          "type": "address"
        },
        {
          "internalType": "address",
          "name": "operator",
          "type": "address"
        }
      ],
      "name": "isApprovedForAll",
      "outputs": [
        {
          "internalType": "bool",
          "name": "",
          "type": "bool"
        }
      ],
      "stateMutability": "view",
      "type": "function"
    },
    {
      "inputs": [],
      "name": "owner",
      "outputs": [
        {
          "internalType": "address",
          "name": "",
          "type": "address"
        }
      ],
      "stateMutability": "view",
      "type": "function"
    },
    {
      "inputs": [],
      "name": "renounceOwnership",
      "outputs": [],
      "stateMutability": "nonpayable",
      "type": "function"
    },
    {
      "inputs": [
        {
          "internalType": "address",
          "name": "from",
          "type": "address"
        },
        {
          "internalType": "address",
          "name": "to",
          "type": "address"
        },
        {
          "internalType": "uint256[]",
          "name": "ids",
          "type": "uint256[]"
        },
        {
          "internalType": "uint256[]",
          "name": "amounts",
          "type": "uint256[]"
        },
        {
          "internalType": "bytes",
          "name": "data",
          "type": "bytes"
        }
      ],
      "name": "safeBatchTransferFrom",
      "outputs": [],
      "stateMutability": "nonpayable",
      "type": "function"
    },
    {
      "inputs": [
        {
          "internalType": "address",
          "name": "from",
          "type": "address"
        },
        {
          "internalType": "address",
          "name": "to",
          "type": "address"
        },
        {
          "internalType": "uint256",
          "name": "id",
          "type": "uint256"
        },
        {
          "internalType": "uint256",
          "name": "amount",
          "type": "uint256"
        },
        {
          "internalType": "bytes",
          "name": "data",
          "type": "bytes"
        }
      ],
      "name": "safeTransferFrom",
      "outputs": [],
      "stateMutability": "nonpayable",
      "type": "function"
    },
    {
      "inputs": [
        {
          "internalType": "address",
          "name": "operator",
          "type": "address"
        },
        {
          "internalType": "bool",
          "name": "approved",
          "type": "bool"
        }
      ],
      "name": "setApprovalForAll",
      "outputs": [],
      "stateMutability": "nonpayable",
      "type": "function"
    },
    {
      "inputs": [
        {
          "internalType": "bytes4",
          "name": "interfaceId",
          "type": "bytes4"
        }
      ],
      "name": "supportsInterface",
      "outputs": [
        {
          "internalType": "bool",
          "name": "",
          "type": "bool"
        }
      ],
      "stateMutability": "view",
      "type": "function"
    },
    {
      "inputs": [
        {
          "internalType": "address",
          "name": "newOwner",
          "type": "address"
        }
      ],
      "name": "transferOwnership",
      "outputs": [],
      "stateMutability": "nonpayable",
      "type": "function"
    },
    {
      "inputs": [
        {
          "internalType": "uint256",
          "name": "",
          "type": "uint256"
        }
      ],
      "name": "uri",
      "outputs": [
        {
          "internalType": "string",
          "name": "",
          "type": "string"
        }
      ],
      "stateMutability": "view",
      "type": "function"
    },
    {
      "inputs": [
        {
          "internalType": "uint256",
          "name": "id",
          "type": "uint256"
        },
        {
          "internalType": "uint256",
          "name": "amount",
          "type": "uint256"
        }
      ],
      "name": "mint",
      "outputs": [],
      "stateMutability": "payable",
      "type": "function"
    }
  ],
  "bytecode": "0x60806040523480156200001157600080fd5b5060405180608001604052806048815260200162003c50604891396200003d81620000d360201b60201c565b506200005e62000052620000ef60201b60201c565b620000f760201b60201c565b62000083336000600160405180602001604052806000815250620001bd60201b60201c565b620000a8336000600160405180602001604052806000815250620001bd60201b60201c565b620000cd336000600160405180602001604052806000815250620001bd60201b60201c565b62000dbb565b8060029080519060200190620000eb92919062000670565b5050565b600033905090565b6000600360009054906101000a900473ffffffffffffffffffffffffffffffffffffffff16905081600360006101000a81548173ffffffffffffffffffffffffffffffffffffffff021916908373ffffffffffffffffffffffffffffffffffffffff1602179055508173ffffffffffffffffffffffffffffffffffffffff168173ffffffffffffffffffffffffffffffffffffffff167f8be0079c531659141344cd1fd0a4f28419497f9722a3daafe3b4186f6b6457e060405160405180910390a35050565b600073ffffffffffffffffffffffffffffffffffffffff168473ffffffffffffffffffffffffffffffffffffffff16141562000230576040517f08c379a0000000000000000000000000000000000000000000000000000000008152600401620002279062000948565b60405180910390fd5b600062000242620000ef60201b60201c565b90506200027b816000876200025d886200038260201b60201c565b6200026e886200038260201b60201c565b876200044b60201b60201c565b8260008086815260200190815260200160002060008773ffffffffffffffffffffffffffffffffffffffff1673ffffffffffffffffffffffffffffffffffffffff1681526020019081526020016000206000828254620002dc9190620009d9565b925050819055508473ffffffffffffffffffffffffffffffffffffffff16600073ffffffffffffffffffffffffffffffffffffffff168273ffffffffffffffffffffffffffffffffffffffff167fc3d58168c5ae7397731d063d5bbf3d657854427343f4c083240f7aacaa2d0f6287876040516200035c9291906200096a565b60405180910390a46200037b816000878787876200045360201b60201c565b5050505050565b60606000600167ffffffffffffffff811115620003c8577f4e487b7100000000000000000000000000000000000000000000000000000000600052604160045260246000fd5b604051908082528060200260200182016040528015620003f75781602001602082028036833780820191505090505b509050828160008151811062000436577f4e487b7100000000000000000000000000000000000000000000000000000000600052603260045260246000fd5b60200260200101818152505080915050919050565b505050505050565b6200047f8473ffffffffffffffffffffffffffffffffffffffff166200065d60201b62000b171760201c565b1562000655578373ffffffffffffffffffffffffffffffffffffffff1663f23a6e6187878686866040518663ffffffff1660e01b8152600401620004c89594939291906200087c565b602060405180830381600087803b158015620004e357600080fd5b505af19250505080156200051757506040513d601f19601f8201168201806040525081019062000514919062000737565b60015b620005c9576200052662000bcf565b806308c379a014156200058a57506200053e62000cff565b806200054b57506200058c565b806040517f08c379a0000000000000000000000000000000000000000000000000000000008152600401620005819190620008e0565b60405180910390fd5b505b6040517f08c379a0000000000000000000000000000000000000000000000000000000008152600401620005c09062000904565b60405180910390fd5b63f23a6e6160e01b7bffffffffffffffffffffffffffffffffffffffffffffffffffffffff1916817bffffffffffffffffffffffffffffffffffffffffffffffffffffffff19161462000653576040517f08c379a00000000000000000000000000000000000000000000000000000000081526004016200064a9062000926565b60405180910390fd5b505b505050505050565b600080823b905060008111915050919050565b8280546200067e9062000ad6565b90600052602060002090601f016020900481019282620006a25760008555620006ee565b82601f10620006bd57805160ff1916838001178555620006ee565b82800160010185558215620006ee579182015b82811115620006ed578251825591602001919060010190620006d0565b5b509050620006fd919062000701565b5090565b5b808211156200071c57600081600090555060010162000702565b5090565b600081519050620007318162000da1565b92915050565b6000602082840312156200074a57600080fd5b60006200075a8482850162000720565b91505092915050565b6200076e8162000a36565b82525050565b60006200078182620009a1565b6200078d8185620009b7565b93506200079f81856020860162000aa0565b620007aa8162000bf4565b840191505092915050565b6000620007c282620009ac565b620007ce8185620009c8565b9350620007e081856020860162000aa0565b620007eb8162000bf4565b840191505092915050565b600062000805603483620009c8565b9150620008128262000c12565b604082019050919050565b60006200082c602883620009c8565b9150620008398262000c61565b604082019050919050565b600062000853602183620009c8565b9150620008608262000cb0565b604082019050919050565b620008768162000a96565b82525050565b600060a08201905062000893600083018862000763565b620008a2602083018762000763565b620008b160408301866200086b565b620008c060608301856200086b565b8181036080830152620008d4818462000774565b90509695505050505050565b60006020820190508181036000830152620008fc8184620007b5565b905092915050565b600060208201905081810360008301526200091f81620007f6565b9050919050565b6000602082019050818103600083015262000941816200081d565b9050919050565b60006020820190508181036000830152620009638162000844565b9050919050565b60006040820190506200098160008301856200086b565b6200099060208301846200086b565b9392505050565b6000604051905090565b600081519050919050565b600081519050919050565b600082825260208201905092915050565b600082825260208201905092915050565b6000620009e68262000a96565b9150620009f38362000a96565b9250827fffffffffffffffffffffffffffffffffffffffffffffffffffffffffffffffff0382111562000a2b5762000a2a62000b42565b5b828201905092915050565b600062000a438262000a76565b9050919050565b60007fffffffff0000000000000000000000000000000000000000000000000000000082169050919050565b600073ffffffffffffffffffffffffffffffffffffffff82169050919050565b6000819050919050565b60005b8381101562000ac057808201518184015260208101905062000aa3565b8381111562000ad0576000848401525b50505050565b6000600282049050600182168062000aef57607f821691505b6020821081141562000b065762000b0562000b71565b5b50919050565b62000b178262000bf4565b810181811067ffffffffffffffff8211171562000b395762000b3862000ba0565b5b80604052505050565b7f4e487b7100000000000000000000000000000000000000000000000000000000600052601160045260246000fd5b7f4e487b7100000000000000000000000000000000000000000000000000000000600052602260045260246000fd5b7f4e487b7100000000000000000000000000000000000000000000000000000000600052604160045260246000fd5b600060033d111562000bf15760046000803e62000bee60005162000c05565b90505b90565b6000601f19601f8301169050919050565b60008160e01c9050919050565b7f455243313135353a207472616e7366657220746f206e6f6e204552433131353560008201527f526563656976657220696d706c656d656e746572000000000000000000000000602082015250565b7f455243313135353a204552433131353552656365697665722072656a6563746560008201527f6420746f6b656e73000000000000000000000000000000000000000000000000602082015250565b7f455243313135353a206d696e7420746f20746865207a65726f2061646472657360008201527f7300000000000000000000000000000000000000000000000000000000000000602082015250565b600060443d101562000d115762000d9e565b62000d1b62000997565b60043d036004823e80513d602482011167ffffffffffffffff8211171562000d4557505062000d9e565b808201805167ffffffffffffffff81111562000d65575050505062000d9e565b80602083010160043d03850181111562000d8457505050505062000d9e565b62000d958260200185018662000b0c565b82955050505050505b90565b62000dac8162000a4a565b811462000db857600080fd5b50565b612e858062000dcb6000396000f3fe6080604052600436106100c15760003560e01c8063715018a61161007f578063e985e9c511610059578063e985e9c51461026a578063f242432a146102a7578063f2fde38b146102d0578063f964d109146102f9576100c1565b8063715018a6146101ff5780638da5cb5b14610216578063a22cb46514610241576100c1565b8062fdd58e146100c657806301ffc9a7146101035780630e89341c146101405780631b2ef1ca1461017d5780632eb2c2d6146101995780634e1273f4146101c2575b600080fd5b3480156100d257600080fd5b506100ed60048036038101906100e89190611dcf565b610324565b6040516100fa919061256f565b60405180910390f35b34801561010f57600080fd5b5061012a60048036038101906101259190611e77565b6103ed565b6040516101379190612372565b60405180910390f35b34801561014c57600080fd5b5061016760048036038101906101629190611ec9565b6104cf565b604051610174919061238d565b60405180910390f35b61019760048036038101906101929190611ef2565b610563565b005b3480156101a557600080fd5b506101c060048036038101906101bb9190611c45565b6105cb565b005b3480156101ce57600080fd5b506101e960048036038101906101e49190611e0b565b61066c565b6040516101f69190612319565b60405180910390f35b34801561020b57600080fd5b5061021461081d565b005b34801561022257600080fd5b5061022b6108a5565b604051610238919061223c565b60405180910390f35b34801561024d57600080fd5b5061026860048036038101906102639190611d93565b6108cf565b005b34801561027657600080fd5b50610291600480360381019061028c9190611c09565b6108e5565b60405161029e9190612372565b60405180910390f35b3480156102b357600080fd5b506102ce60048036038101906102c99190611d04565b610979565b005b3480156102dc57600080fd5b506102f760048036038101906102f29190611be0565b610a1a565b005b34801561030557600080fd5b5061030e610b12565b60405161031b919061256f565b60405180910390f35b60008073ffffffffffffffffffffffffffffffffffffffff168373ffffffffffffffffffffffffffffffffffffffff161415610395576040517f08c379a000000000000000000000000000000000000000000000000000000000815260040161038c906123ef565b60405180910390fd5b60008083815260200190815260200160002060008473ffffffffffffffffffffffffffffffffffffffff1673ffffffffffffffffffffffffffffffffffffffff16815260200190815260200160002054905092915050565b60007fd9b67a26000000000000000000000000000000000000000000000000000000007bffffffffffffffffffffffffffffffffffffffffffffffffffffffff1916827bffffffffffffffffffffffffffffffffffffffffffffffffffffffff191614806104b857507f0e89341c000000000000000000000000000000000000000000000000000000007bffffffffffffffffffffffffffffffffffffffffffffffffffffffff1916827bffffffffffffffffffffffffffffffffffffffffffffffffffffffff1916145b806104c857506104c782610b2a565b5b9050919050565b6060600280546104de906127de565b80601f016020809104026020016040519081016040528092919081815260200182805461050a906127de565b80156105575780601f1061052c57610100808354040283529160200191610557565b820191906000526020600020905b81548152906001019060200180831161053a57829003601f168201915b50505050509050919050565b662386f26fc1000034146105ac576040517f08c379a00000000000000000000000000000000000000000000000000000000081526004016105a39061242f565b60405180910390fd5b6105c733838360405180602001604052806000815250610b94565b5050565b6105d3610d2a565b73ffffffffffffffffffffffffffffffffffffffff168573ffffffffffffffffffffffffffffffffffffffff161480610619575061061885610613610d2a565b6108e5565b5b610658576040517f08c379a000000000000000000000000000000000000000000000000000000000815260040161064f9061248f565b60405180910390fd5b6106658585858585610d32565b5050505050565b606081518351146106b2576040517f08c379a00000000000000000000000000000000000000000000000000000000081526004016106a99061250f565b60405180910390fd5b6000835167ffffffffffffffff8111156106f5577f4e487b7100000000000000000000000000000000000000000000000000000000600052604160045260246000fd5b6040519080825280602002602001820160405280156107235781602001602082028036833780820191505090505b50905060005b8451811015610812576107bc85828151811061076e577f4e487b7100000000000000000000000000000000000000000000000000000000600052603260045260246000fd5b60200260200101518583815181106107af577f4e487b7100000000000000000000000000000000000000000000000000000000600052603260045260246000fd5b6020026020010151610324565b8282815181106107f5577f4e487b7100000000000000000000000000000000000000000000000000000000600052603260045260246000fd5b6020026020010181815250508061080b90612841565b9050610729565b508091505092915050565b610825610d2a565b73ffffffffffffffffffffffffffffffffffffffff166108436108a5565b73ffffffffffffffffffffffffffffffffffffffff1614610899576040517f08c379a0000000000000000000000000000000000000000000000000000000008152600401610890906124cf565b60405180910390fd5b6108a36000611092565b565b6000600360009054906101000a900473ffffffffffffffffffffffffffffffffffffffff16905090565b6108e16108da610d2a565b8383611158565b5050565b6000600160008473ffffffffffffffffffffffffffffffffffffffff1673ffffffffffffffffffffffffffffffffffffffff16815260200190815260200160002060008373ffffffffffffffffffffffffffffffffffffffff1673ffffffffffffffffffffffffffffffffffffffff16815260200190815260200160002060009054906101000a900460ff16905092915050565b610981610d2a565b73ffffffffffffffffffffffffffffffffffffffff168573ffffffffffffffffffffffffffffffffffffffff1614806109c757506109c6856109c1610d2a565b6108e5565b5b610a06576040517f08c379a00000000000000000000000000000000000000000000000000000000081526004016109fd9061244f565b60405180910390fd5b610a1385858585856112c5565b5050505050565b610a22610d2a565b73ffffffffffffffffffffffffffffffffffffffff16610a406108a5565b73ffffffffffffffffffffffffffffffffffffffff1614610a96576040517f08c379a0000000000000000000000000000000000000000000000000000000008152600401610a8d906124cf565b60405180910390fd5b600073ffffffffffffffffffffffffffffffffffffffff168173ffffffffffffffffffffffffffffffffffffffff161415610b06576040517f08c379a0000000000000000000000000000000000000000000000000000000008152600401610afd9061240f565b60405180910390fd5b610b0f81611092565b50565b600081565b600080823b905060008111915050919050565b60007f01ffc9a7000000000000000000000000000000000000000000000000000000007bffffffffffffffffffffffffffffffffffffffffffffffffffffffff1916827bffffffffffffffffffffffffffffffffffffffffffffffffffffffff1916149050919050565b600073ffffffffffffffffffffffffffffffffffffffff168473ffffffffffffffffffffffffffffffffffffffff161415610c04576040517f08c379a0000000000000000000000000000000000000000000000000000000008152600401610bfb9061254f565b60405180910390fd5b6000610c0e610d2a565b9050610c2f81600087610c2088611547565b610c2988611547565b8761160d565b8260008086815260200190815260200160002060008773ffffffffffffffffffffffffffffffffffffffff1673ffffffffffffffffffffffffffffffffffffffff1681526020019081526020016000206000828254610c8e91906126d2565b925050819055508473ffffffffffffffffffffffffffffffffffffffff16600073ffffffffffffffffffffffffffffffffffffffff168273ffffffffffffffffffffffffffffffffffffffff167fc3d58168c5ae7397731d063d5bbf3d657854427343f4c083240f7aacaa2d0f628787604051610d0c92919061258a565b60405180910390a4610d2381600087878787611615565b5050505050565b600033905090565b8151835114610d76576040517f08c379a0000000000000000000000000000000000000000000000000000000008152600401610d6d9061252f565b60405180910390fd5b600073ffffffffffffffffffffffffffffffffffffffff168473ffffffffffffffffffffffffffffffffffffffff161415610de6576040517f08c379a0000000000000000000000000000000000000000000000000000000008152600401610ddd9061246f565b60405180910390fd5b6000610df0610d2a565b9050610e0081878787878761160d565b60005b8451811015610ffd576000858281518110610e47577f4e487b7100000000000000000000000000000000000000000000000000000000600052603260045260246000fd5b602002602001015190506000858381518110610e8c577f4e487b7100000000000000000000000000000000000000000000000000000000600052603260045260246000fd5b60200260200101519050600080600084815260200190815260200160002060008b73ffffffffffffffffffffffffffffffffffffffff1673ffffffffffffffffffffffffffffffffffffffff16815260200190815260200160002054905081811015610f2d576040517f08c379a0000000000000000000000000000000000000000000000000000000008152600401610f24906124af565b60405180910390fd5b81810360008085815260200190815260200160002060008c73ffffffffffffffffffffffffffffffffffffffff1673ffffffffffffffffffffffffffffffffffffffff168152602001908152602001600020819055508160008085815260200190815260200160002060008b73ffffffffffffffffffffffffffffffffffffffff1673ffffffffffffffffffffffffffffffffffffffff1681526020019081526020016000206000828254610fe291906126d2565b9250508190555050505080610ff690612841565b9050610e03565b508473ffffffffffffffffffffffffffffffffffffffff168673ffffffffffffffffffffffffffffffffffffffff168273ffffffffffffffffffffffffffffffffffffffff167f4a39dc06d4c0dbc64b70af90fd698a233a518aa5d07e595d983b8c0526c8f7fb878760405161107492919061233b565b60405180910390a461108a8187878787876117fc565b505050505050565b6000600360009054906101000a900473ffffffffffffffffffffffffffffffffffffffff16905081600360006101000a81548173ffffffffffffffffffffffffffffffffffffffff021916908373ffffffffffffffffffffffffffffffffffffffff1602179055508173ffffffffffffffffffffffffffffffffffffffff168173ffffffffffffffffffffffffffffffffffffffff167f8be0079c531659141344cd1fd0a4f28419497f9722a3daafe3b4186f6b6457e060405160405180910390a35050565b8173ffffffffffffffffffffffffffffffffffffffff168373ffffffffffffffffffffffffffffffffffffffff1614156111c7576040517f08c379a00000000000000000000000000000000000000000000000000000000081526004016111be906124ef565b60405180910390fd5b80600160008573ffffffffffffffffffffffffffffffffffffffff1673ffffffffffffffffffffffffffffffffffffffff16815260200190815260200160002060008473ffffffffffffffffffffffffffffffffffffffff1673ffffffffffffffffffffffffffffffffffffffff16815260200190815260200160002060006101000a81548160ff0219169083151502179055508173ffffffffffffffffffffffffffffffffffffffff168373ffffffffffffffffffffffffffffffffffffffff167f17307eab39ab6107e8899845ad3d59bd9653f200f220920489ca2b5937696c31836040516112b89190612372565b60405180910390a3505050565b600073ffffffffffffffffffffffffffffffffffffffff168473ffffffffffffffffffffffffffffffffffffffff161415611335576040517f08c379a000000000000000000000000000000000000000000000000000000000815260040161132c9061246f565b60405180910390fd5b600061133f610d2a565b905061135f81878761135088611547565b61135988611547565b8761160d565b600080600086815260200190815260200160002060008873ffffffffffffffffffffffffffffffffffffffff1673ffffffffffffffffffffffffffffffffffffffff168152602001908152602001600020549050838110156113f6576040517f08c379a00000000000000000000000000000000000000000000000000000000081526004016113ed906124af565b60405180910390fd5b83810360008087815260200190815260200160002060008973ffffffffffffffffffffffffffffffffffffffff1673ffffffffffffffffffffffffffffffffffffffff168152602001908152602001600020819055508360008087815260200190815260200160002060008873ffffffffffffffffffffffffffffffffffffffff1673ffffffffffffffffffffffffffffffffffffffff16815260200190815260200160002060008282546114ab91906126d2565b925050819055508573ffffffffffffffffffffffffffffffffffffffff168773ffffffffffffffffffffffffffffffffffffffff168373ffffffffffffffffffffffffffffffffffffffff167fc3d58168c5ae7397731d063d5bbf3d657854427343f4c083240f7aacaa2d0f62888860405161152892919061258a565b60405180910390a461153e828888888888611615565b50505050505050565b60606000600167ffffffffffffffff81111561158c577f4e487b7100000000000000000000000000000000000000000000000000000000600052604160045260246000fd5b6040519080825280602002602001820160405280156115ba5781602001602082028036833780820191505090505b50905082816000815181106115f8577f4e487b7100000000000000000000000000000000000000000000000000000000600052603260045260246000fd5b60200260200101818152505080915050919050565b505050505050565b6116348473ffffffffffffffffffffffffffffffffffffffff16610b17565b156117f4578373ffffffffffffffffffffffffffffffffffffffff1663f23a6e6187878686866040518663ffffffff1660e01b815260040161167a9594939291906122bf565b602060405180830381600087803b15801561169457600080fd5b505af19250505080156116c557506040513d601f19601f820116820180604052508101906116c29190611ea0565b60015b61176b576116d1612917565b806308c379a0141561172e57506116e6612d5d565b806116f15750611730565b806040517f08c379a0000000000000000000000000000000000000000000000000000000008152600401611725919061238d565b60405180910390fd5b505b6040517f08c379a0000000000000000000000000000000000000000000000000000000008152600401611762906123af565b60405180910390fd5b63f23a6e6160e01b7bffffffffffffffffffffffffffffffffffffffffffffffffffffffff1916817bffffffffffffffffffffffffffffffffffffffffffffffffffffffff1916146117f2576040517f08c379a00000000000000000000000000000000000000000000000000000000081526004016117e9906123cf565b60405180910390fd5b505b505050505050565b61181b8473ffffffffffffffffffffffffffffffffffffffff16610b17565b156119db578373ffffffffffffffffffffffffffffffffffffffff1663bc197c8187878686866040518663ffffffff1660e01b8152600401611861959493929190612257565b602060405180830381600087803b15801561187b57600080fd5b505af19250505080156118ac57506040513d601f19601f820116820180604052508101906118a99190611ea0565b60015b611952576118b8612917565b806308c379a0141561191557506118cd612d5d565b806118d85750611917565b806040517f08c379a000000000000000000000000000000000000000000000000000000000815260040161190c919061238d565b60405180910390fd5b505b6040517f08c379a0000000000000000000000000000000000000000000000000000000008152600401611949906123af565b60405180910390fd5b63bc197c8160e01b7bffffffffffffffffffffffffffffffffffffffffffffffffffffffff1916817bffffffffffffffffffffffffffffffffffffffffffffffffffffffff1916146119d9576040517f08c379a00000000000000000000000000000000000000000000000000000000081526004016119d0906123cf565b60405180910390fd5b505b505050505050565b60006119f66119f1846125d8565b6125b3565b90508083825260208201905082856020860282011115611a1557600080fd5b60005b85811015611a455781611a2b8882611af9565b845260208401935060208301925050600181019050611a18565b5050509392505050565b6000611a62611a5d84612604565b6125b3565b90508083825260208201905082856020860282011115611a8157600080fd5b60005b85811015611ab15781611a978882611bcb565b845260208401935060208301925050600181019050611a84565b5050509392505050565b6000611ace611ac984612630565b6125b3565b905082815260208101848484011115611ae657600080fd5b611af184828561279c565b509392505050565b600081359050611b0881612df3565b92915050565b600082601f830112611b1f57600080fd5b8135611b2f8482602086016119e3565b91505092915050565b600082601f830112611b4957600080fd5b8135611b59848260208601611a4f565b91505092915050565b600081359050611b7181612e0a565b92915050565b600081359050611b8681612e21565b92915050565b600081519050611b9b81612e21565b92915050565b600082601f830112611bb257600080fd5b8135611bc2848260208601611abb565b91505092915050565b600081359050611bda81612e38565b92915050565b600060208284031215611bf257600080fd5b6000611c0084828501611af9565b91505092915050565b60008060408385031215611c1c57600080fd5b6000611c2a85828601611af9565b9250506020611c3b85828601611af9565b9150509250929050565b600080600080600060a08688031215611c5d57600080fd5b6000611c6b88828901611af9565b9550506020611c7c88828901611af9565b945050604086013567ffffffffffffffff811115611c9957600080fd5b611ca588828901611b38565b935050606086013567ffffffffffffffff811115611cc257600080fd5b611cce88828901611b38565b925050608086013567ffffffffffffffff811115611ceb57600080fd5b611cf788828901611ba1565b9150509295509295909350565b600080600080600060a08688031215611d1c57600080fd5b6000611d2a88828901611af9565b9550506020611d3b88828901611af9565b9450506040611d4c88828901611bcb565b9350506060611d5d88828901611bcb565b925050608086013567ffffffffffffffff811115611d7a57600080fd5b611d8688828901611ba1565b9150509295509295909350565b60008060408385031215611da657600080fd5b6000611db485828601611af9565b9250506020611dc585828601611b62565b9150509250929050565b60008060408385031215611de257600080fd5b6000611df085828601611af9565b9250506020611e0185828601611bcb565b9150509250929050565b60008060408385031215611e1e57600080fd5b600083013567ffffffffffffffff811115611e3857600080fd5b611e4485828601611b0e565b925050602083013567ffffffffffffffff811115611e6157600080fd5b611e6d85828601611b38565b9150509250929050565b600060208284031215611e8957600080fd5b6000611e9784828501611b77565b91505092915050565b600060208284031215611eb257600080fd5b6000611ec084828501611b8c565b91505092915050565b600060208284031215611edb57600080fd5b6000611ee984828501611bcb565b91505092915050565b60008060408385031215611f0557600080fd5b6000611f1385828601611bcb565b9250506020611f2485828601611bcb565b9150509250929050565b6000611f3a838361221e565b60208301905092915050565b611f4f81612728565b82525050565b6000611f6082612671565b611f6a818561269f565b9350611f7583612661565b8060005b83811015611fa6578151611f8d8882611f2e565b9750611f9883612692565b925050600181019050611f79565b5085935050505092915050565b611fbc8161273a565b82525050565b6000611fcd8261267c565b611fd781856126b0565b9350611fe78185602086016127ab565b611ff081612939565b840191505092915050565b600061200682612687565b61201081856126c1565b93506120208185602086016127ab565b61202981612939565b840191505092915050565b60006120416034836126c1565b915061204c82612957565b604082019050919050565b60006120646028836126c1565b915061206f826129a6565b604082019050919050565b6000612087602b836126c1565b9150612092826129f5565b604082019050919050565b60006120aa6026836126c1565b91506120b582612a44565b604082019050919050565b60006120cd6015836126c1565b91506120d882612a93565b602082019050919050565b60006120f06029836126c1565b91506120fb82612abc565b604082019050919050565b60006121136025836126c1565b915061211e82612b0b565b604082019050919050565b60006121366032836126c1565b915061214182612b5a565b604082019050919050565b6000612159602a836126c1565b915061216482612ba9565b604082019050919050565b600061217c6020836126c1565b915061218782612bf8565b602082019050919050565b600061219f6029836126c1565b91506121aa82612c21565b604082019050919050565b60006121c26029836126c1565b91506121cd82612c70565b604082019050919050565b60006121e56028836126c1565b91506121f082612cbf565b604082019050919050565b60006122086021836126c1565b915061221382612d0e565b604082019050919050565b61222781612792565b82525050565b61223681612792565b82525050565b60006020820190506122516000830184611f46565b92915050565b600060a08201905061226c6000830188611f46565b6122796020830187611f46565b818103604083015261228b8186611f55565b9050818103606083015261229f8185611f55565b905081810360808301526122b38184611fc2565b90509695505050505050565b600060a0820190506122d46000830188611f46565b6122e16020830187611f46565b6122ee604083018661222d565b6122fb606083018561222d565b818103608083015261230d8184611fc2565b90509695505050505050565b600060208201905081810360008301526123338184611f55565b905092915050565b600060408201905081810360008301526123558185611f55565b905081810360208301526123698184611f55565b90509392505050565b60006020820190506123876000830184611fb3565b92915050565b600060208201905081810360008301526123a78184611ffb565b905092915050565b600060208201905081810360008301526123c881612034565b9050919050565b600060208201905081810360008301526123e881612057565b9050919050565b600060208201905081810360008301526124088161207a565b9050919050565b600060208201905081810360008301526124288161209d565b9050919050565b60006020820190508181036000830152612448816120c0565b9050919050565b60006020820190508181036000830152612468816120e3565b9050919050565b6000602082019050818103600083015261248881612106565b9050919050565b600060208201905081810360008301526124a881612129565b9050919050565b600060208201905081810360008301526124c88161214c565b9050919050565b600060208201905081810360008301526124e88161216f565b9050919050565b6000602082019050818103600083015261250881612192565b9050919050565b60006020820190508181036000830152612528816121b5565b9050919050565b60006020820190508181036000830152612548816121d8565b9050919050565b60006020820190508181036000830152612568816121fb565b9050919050565b6000602082019050612584600083018461222d565b92915050565b600060408201905061259f600083018561222d565b6125ac602083018461222d565b9392505050565b60006125bd6125ce565b90506125c98282612810565b919050565b6000604051905090565b600067ffffffffffffffff8211156125f3576125f26128e8565b5b602082029050602081019050919050565b600067ffffffffffffffff82111561261f5761261e6128e8565b5b602082029050602081019050919050565b600067ffffffffffffffff82111561264b5761264a6128e8565b5b61265482612939565b9050602081019050919050565b6000819050602082019050919050565b600081519050919050565b600081519050919050565b600081519050919050565b6000602082019050919050565b600082825260208201905092915050565b600082825260208201905092915050565b600082825260208201905092915050565b60006126dd82612792565b91506126e883612792565b9250827fffffffffffffffffffffffffffffffffffffffffffffffffffffffffffffffff0382111561271d5761271c61288a565b5b828201905092915050565b600061273382612772565b9050919050565b60008115159050919050565b60007fffffffff0000000000000000000000000000000000000000000000000000000082169050919050565b600073ffffffffffffffffffffffffffffffffffffffff82169050919050565b6000819050919050565b82818337600083830152505050565b60005b838110156127c95780820151818401526020810190506127ae565b838111156127d8576000848401525b50505050565b600060028204905060018216806127f657607f821691505b6020821081141561280a576128096128b9565b5b50919050565b61281982612939565b810181811067ffffffffffffffff82111715612838576128376128e8565b5b80604052505050565b600061284c82612792565b91507fffffffffffffffffffffffffffffffffffffffffffffffffffffffffffffffff82141561287f5761287e61288a565b5b600182019050919050565b7f4e487b7100000000000000000000000000000000000000000000000000000000600052601160045260246000fd5b7f4e487b7100000000000000000000000000000000000000000000000000000000600052602260045260246000fd5b7f4e487b7100000000000000000000000000000000000000000000000000000000600052604160045260246000fd5b600060033d11156129365760046000803e61293360005161294a565b90505b90565b6000601f19601f8301169050919050565b60008160e01c9050919050565b7f455243313135353a207472616e7366657220746f206e6f6e204552433131353560008201527f526563656976657220696d706c656d656e746572000000000000000000000000602082015250565b7f455243313135353a204552433131353552656365697665722072656a6563746560008201527f6420746f6b656e73000000000000000000000000000000000000000000000000602082015250565b7f455243313135353a2062616c616e636520717565727920666f7220746865207a60008201527f65726f2061646472657373000000000000000000000000000000000000000000602082015250565b7f4f776e61626c653a206e6577206f776e657220697320746865207a65726f206160008201527f6464726573730000000000000000000000000000000000000000000000000000602082015250565b7f4e65656420746f2073656e6420302e3031204554480000000000000000000000600082015250565b7f455243313135353a2063616c6c6572206973206e6f74206f776e6572206e6f7260008201527f20617070726f7665640000000000000000000000000000000000000000000000602082015250565b7f455243313135353a207472616e7366657220746f20746865207a65726f20616460008201527f6472657373000000000000000000000000000000000000000000000000000000602082015250565b7f455243313135353a207472616e736665722063616c6c6572206973206e6f742060008201527f6f776e6572206e6f7220617070726f7665640000000000000000000000000000602082015250565b7f455243313135353a20696e73756666696369656e742062616c616e636520666f60008201527f72207472616e7366657200000000000000000000000000000000000000000000602082015250565b7f4f776e61626c653a2063616c6c6572206973206e6f7420746865206f776e6572600082015250565b7f455243313135353a2073657474696e6720617070726f76616c2073746174757360008201527f20666f722073656c660000000000000000000000000000000000000000000000602082015250565b7f455243313135353a206163636f756e747320616e6420696473206c656e67746860008201527f206d69736d617463680000000000000000000000000000000000000000000000602082015250565b7f455243313135353a2069647320616e6420616d6f756e7473206c656e6774682060008201527f6d69736d61746368000000000000000000000000000000000000000000000000602082015250565b7f455243313135353a206d696e7420746f20746865207a65726f2061646472657360008201527f7300000000000000000000000000000000000000000000000000000000000000602082015250565b600060443d1015612d6d57612df0565b612d756125ce565b60043d036004823e80513d602482011167ffffffffffffffff82111715612d9d575050612df0565b808201805167ffffffffffffffff811115612dbb5750505050612df0565b80602083010160043d038501811115612dd8575050505050612df0565b612de782602001850186612810565b82955050505050505b90565b612dfc81612728565b8114612e0757600080fd5b50565b612e138161273a565b8114612e1e57600080fd5b50565b612e2a81612746565b8114612e3557600080fd5b50565b612e4181612792565b8114612e4c57600080fd5b5056fea26469706673582212206a0960a5c83fe8da9092209540f40ea07047e9290b95b84d7cb2960bf8e87b8864736f6c63430008020033697066733a2f2f516d596b764a66654757314c487038565a76507034705578487169365a587a354e646b4e577772557756707664782f6d657461646174612f7b69647d2e6a736f6e",
  "immutableReferences": {},
  "source": "// SPDX-License-Identifier: MIT\r\npragma solidity ^0.8.2;\r\n\r\n//import 1155 token contract from Openzeppelin\r\nimport \"@openzeppelin/contracts/token/ERC1155/ERC1155.sol\";\r\nimport \"@openzeppelin/contracts/utils/math/SafeMath.sol\";\r\nimport \"@openzeppelin/contracts/access/Ownable.sol\";\r\n\r\ncontract ClimateRewardNftV2 is ERC1155, Ownable {\r\n    using SafeMath for uint256;\r\n\r\n    uint256 public constant RANDOM = 0;\r\n\r\n    constructor()\r\n        ERC1155(\r\n            \"ipfs://QmYkvJfeGW1LHp8VZvPp4pUxHqi6ZXz5NdkNWwrUwVpvdx/metadata/{id}.json\" // You can get this saved in dasboard of your Moralis server instance.\r\n        )\r\n    {\r\n        // account, token_id, number\r\n        _mint(msg.sender, RANDOM, 1, \"\");\r\n        _mint(msg.sender, RANDOM, 1, \"\");\r\n        _mint(msg.sender, RANDOM, 1, \"\");\r\n    }\r\n\r\n    function mint(uint256 id, uint256 amount)\r\n        public\r\n        payable\r\n    {\r\n        require(msg.value == 0.01 ether, 'Need to send 0.01 ETH');\r\n        _mint(msg.sender, id, amount, \"\");\r\n    }\r\n}",
  "sourcePath": "C:\\Users\\racou\\source\\Moralis\\Hackathon\\ethereum-boilerplate\\Truffle\\contracts\\ClimateRewardNftV2.sol",
  "compiler": {
    "name": "solc",
    "version": "0.8.2+commit.661d1103.Emscripten.clang"
  },
  "schemaVersion": "3.4.3",
  "updatedAt": "2022-01-29T19:41:41.787Z",
  "devdoc": {
    "kind": "dev",
    "methods": {
      "balanceOf(address,uint256)": {
        "details": "See {IERC1155-balanceOf}. Requirements: - `account` cannot be the zero address."
      },
      "balanceOfBatch(address[],uint256[])": {
        "details": "See {IERC1155-balanceOfBatch}. Requirements: - `accounts` and `ids` must have the same length."
      },
      "isApprovedForAll(address,address)": {
        "details": "See {IERC1155-isApprovedForAll}."
      },
      "owner()": {
        "details": "Returns the address of the current owner."
      },
      "renounceOwnership()": {
        "details": "Leaves the contract without owner. It will not be possible to call `onlyOwner` functions anymore. Can only be called by the current owner. NOTE: Renouncing ownership will leave the contract without an owner, thereby removing any functionality that is only available to the owner."
      },
      "safeBatchTransferFrom(address,address,uint256[],uint256[],bytes)": {
        "details": "See {IERC1155-safeBatchTransferFrom}."
      },
      "safeTransferFrom(address,address,uint256,uint256,bytes)": {
        "details": "See {IERC1155-safeTransferFrom}."
      },
      "setApprovalForAll(address,bool)": {
        "details": "See {IERC1155-setApprovalForAll}."
      },
      "supportsInterface(bytes4)": {
        "details": "See {IERC165-supportsInterface}."
      },
      "transferOwnership(address)": {
        "details": "Transfers ownership of the contract to a new account (`newOwner`). Can only be called by the current owner."
      },
      "uri(uint256)": {
        "details": "See {IERC1155MetadataURI-uri}. This implementation returns the same URI for *all* token types. It relies on the token type ID substitution mechanism https://eips.ethereum.org/EIPS/eip-1155#metadata[defined in the EIP]. Clients calling this function must replace the `\\{id\\}` substring with the actual token type ID."
      }
    },
    "version": 1
  },
  "userdoc": {
    "kind": "user",
    "methods": {},
    "version": 1
  }
}