{
  "contractName": "ClimateDonation",
  "abi": [
    {
      "inputs": [],
      "stateMutability": "nonpayable",
      "type": "constructor"
    },
    {
      "anonymous": false,
      "inputs": [
        {
          "indexed": false,
          "internalType": "address",
          "name": "from",
          "type": "address"
        },
        {
          "indexed": false,
          "internalType": "uint256",
          "name": "amount",
          "type": "uint256"
        },
        {
          "indexed": false,
          "internalType": "string",
          "name": "messge",
          "type": "string"
        }
      ],
      "name": "Donate",
      "type": "event"
    },
    {
      "inputs": [
        {
          "internalType": "string",
          "name": "note",
          "type": "string"
        }
      ],
      "name": "newDonation",
      "outputs": [],
      "stateMutability": "payable",
      "type": "function"
    }
  ],
  "bytecode": "0x608060405234801561001057600080fd5b50336000806101000a81548173ffffffffffffffffffffffffffffffffffffffff021916908373ffffffffffffffffffffffffffffffffffffffff1602179055506104d2806100606000396000f3fe60806040526004361061001e5760003560e01c8063de5ff49314610023575b600080fd5b61003d600480360381019061003891906101b3565b61003f565b005b60008060009054906101000a900473ffffffffffffffffffffffffffffffffffffffff1673ffffffffffffffffffffffffffffffffffffffff163460405161008690610291565b60006040518083038185875af1925050503d80600081146100c3576040519150601f19603f3d011682016040523d82523d6000602084013e6100c8565b606091505b505090508061010c576040517f08c379a0000000000000000000000000000000000000000000000000000000008152600401610103906102e4565b60405180910390fd5b7f4c4cf652c6f14d29f3d8b821ba41309afba5bf3a6f10b64d61665a235049711d33348460405161013f939291906102a6565b60405180910390a15050565b600061015e61015984610329565b610304565b90508281526020810184848401111561017657600080fd5b6101818482856103bd565b509392505050565b600082601f83011261019a57600080fd5b81356101aa84826020860161014b565b91505092915050565b6000602082840312156101c557600080fd5b600082013567ffffffffffffffff8111156101df57600080fd5b6101eb84828501610189565b91505092915050565b6101fd81610381565b82525050565b600061020e8261035a565b6102188185610370565b93506102288185602086016103cc565b6102318161045f565b840191505092915050565b6000610249601e83610370565b915061025482610470565b602082019050919050565b600061026c600083610365565b915061027782610499565b600082019050919050565b61028b816103b3565b82525050565b600061029c8261025f565b9150819050919050565b60006060820190506102bb60008301866101f4565b6102c86020830185610282565b81810360408301526102da8184610203565b9050949350505050565b600060208201905081810360008301526102fd8161023c565b9050919050565b600061030e61031f565b905061031a82826103ff565b919050565b6000604051905090565b600067ffffffffffffffff82111561034457610343610430565b5b61034d8261045f565b9050602081019050919050565b600081519050919050565b600081905092915050565b600082825260208201905092915050565b600061038c82610393565b9050919050565b600073ffffffffffffffffffffffffffffffffffffffff82169050919050565b6000819050919050565b82818337600083830152505050565b60005b838110156103ea5780820151818401526020810190506103cf565b838111156103f9576000848401525b50505050565b6104088261045f565b810181811067ffffffffffffffff8211171561042757610426610430565b5b80604052505050565b7f4e487b7100000000000000000000000000000000000000000000000000000000600052604160045260246000fd5b6000601f19601f8301169050919050565b7f4661696c656420746f20646f6e61746520746f2074686520416d617a6f6e0000600082015250565b5056fea26469706673582212201f2e7e533cfca78f5e7cd5c2450fc6d3359bdf10ae35582d0a7305a066e8a3bf64736f6c63430008020033",
  "immutableReferences": {},
  "source": "// SPDX-License-Identifier: MIT\r\npragma solidity ^0.8.2;\r\n\r\n\r\ncontract ClimateDonation {\r\n\r\n    address payable owner;\r\n\r\n    constructor() {\r\n         owner = payable(msg.sender);\r\n     }\r\n\r\n     event Donate (\r\n        address from,\r\n        uint256 amount,\r\n        string messge\r\n     );\r\n\r\n    function newDonation(string memory note) public payable{\r\n        (bool success,) = owner.call{value: msg.value}(\"\");\r\n        require(success, \"Failed to donate to the Amazon\");\r\n        emit Donate(\r\n            msg.sender,\r\n            msg.value,\r\n            note\r\n\r\n        );\r\n    } \r\n\r\n}",
  "sourcePath": "C:\\Users\\racou\\source\\Moralis\\Hackathon\\ethereum-boilerplate\\truffle\\contracts\\ClimateDonation.sol",
  "compiler": {
    "name": "solc",
    "version": "0.8.2+commit.661d1103.Emscripten.clang"
  },
  "schemaVersion": "3.4.3",
  "updatedAt": "2022-01-31T12:50:10.704Z",
  "devdoc": {
    "kind": "dev",
    "methods": {},
    "version": 1
  },
  "userdoc": {
    "kind": "user",
    "methods": {},
    "version": 1
  }
}