{
  "contractName": "ClimateHeroV2",
  "abi": [
    {
      "inputs": [],
      "stateMutability": "nonpayable",
      "type": "constructor"
    },
    {
      "anonymous": false,
      "inputs": [
        {
          "indexed": true,
          "internalType": "address",
          "name": "account",
          "type": "address"
        },
        {
          "indexed": true,
          "internalType": "address",
          "name": "operator",
          "type": "address"
        },
        {
          "indexed": false,
          "internalType": "bool",
          "name": "approved",
          "type": "bool"
        }
      ],
      "name": "ApprovalForAll",
      "type": "event"
    },
    {
      "anonymous": false,
      "inputs": [
        {
          "indexed": true,
          "internalType": "address",
          "name": "previousOwner",
          "type": "address"
        },
        {
          "indexed": true,
          "internalType": "address",
          "name": "newOwner",
          "type": "address"
        }
      ],
      "name": "OwnershipTransferred",
      "type": "event"
    },
    {
      "anonymous": false,
      "inputs": [
        {
          "indexed": false,
          "internalType": "address",
          "name": "account",
          "type": "address"
        }
      ],
      "name": "Paused",
      "type": "event"
    },
    {
      "anonymous": false,
      "inputs": [
        {
          "indexed": true,
          "internalType": "address",
          "name": "operator",
          "type": "address"
        },
        {
          "indexed": true,
          "internalType": "address",
          "name": "from",
          "type": "address"
        },
        {
          "indexed": true,
          "internalType": "address",
          "name": "to",
          "type": "address"
        },
        {
          "indexed": false,
          "internalType": "uint256[]",
          "name": "ids",
          "type": "uint256[]"
        },
        {
          "indexed": false,
          "internalType": "uint256[]",
          "name": "values",
          "type": "uint256[]"
        }
      ],
      "name": "TransferBatch",
      "type": "event"
    },
    {
      "anonymous": false,
      "inputs": [
        {
          "indexed": true,
          "internalType": "address",
          "name": "operator",
          "type": "address"
        },
        {
          "indexed": true,
          "internalType": "address",
          "name": "from",
          "type": "address"
        },
        {
          "indexed": true,
          "internalType": "address",
          "name": "to",
          "type": "address"
        },
        {
          "indexed": false,
          "internalType": "uint256",
          "name": "id",
          "type": "uint256"
        },
        {
          "indexed": false,
          "internalType": "uint256",
          "name": "value",
          "type": "uint256"
        }
      ],
      "name": "TransferSingle",
      "type": "event"
    },
    {
      "anonymous": false,
      "inputs": [
        {
          "indexed": false,
          "internalType": "string",
          "name": "value",
          "type": "string"
        },
        {
          "indexed": true,
          "internalType": "uint256",
          "name": "id",
          "type": "uint256"
        }
      ],
      "name": "URI",
      "type": "event"
    },
    {
      "anonymous": false,
      "inputs": [
        {
          "indexed": false,
          "internalType": "address",
          "name": "account",
          "type": "address"
        }
      ],
      "name": "Unpaused",
      "type": "event"
    },
    {
      "inputs": [],
      "name": "BOLSO",
      "outputs": [
        {
          "internalType": "uint256",
          "name": "",
          "type": "uint256"
        }
      ],
      "stateMutability": "view",
      "type": "function"
    },
    {
      "inputs": [],
      "name": "CO2",
      "outputs": [
        {
          "internalType": "uint256",
          "name": "",
          "type": "uint256"
        }
      ],
      "stateMutability": "view",
      "type": "function"
    },
    {
      "inputs": [],
      "name": "CURUPIRA",
      "outputs": [
        {
          "internalType": "uint256",
          "name": "",
          "type": "uint256"
        }
      ],
      "stateMutability": "view",
      "type": "function"
    },
    {
      "inputs": [],
      "name": "NAIARA",
      "outputs": [
        {
          "internalType": "uint256",
          "name": "",
          "type": "uint256"
        }
      ],
      "stateMutability": "view",
      "type": "function"
    },
    {
      "inputs": [
        {
          "internalType": "address",
          "name": "account",
          "type": "address"
        },
        {
          "internalType": "uint256",
          "name": "id",
          "type": "uint256"
        }
      ],
      "name": "balanceOf",
      "outputs": [
        {
          "internalType": "uint256",
          "name": "",
          "type": "uint256"
        }
      ],
      "stateMutability": "view",
      "type": "function"
    },
    {
      "inputs": [
        {
          "internalType": "address[]",
          "name": "accounts",
          "type": "address[]"
        },
        {
          "internalType": "uint256[]",
          "name": "ids",
          "type": "uint256[]"
        }
      ],
      "name": "balanceOfBatch",
      "outputs": [
        {
          "internalType": "uint256[]",
          "name": "",
          "type": "uint256[]"
        }
      ],
      "stateMutability": "view",
      "type": "function"
    },
    {
      "inputs": [
        {
          "internalType": "address",
          "name": "account",
          "type": "address"
        },
        {
          "internalType": "uint256",
          "name": "id",
          "type": "uint256"
        },
        {
          "internalType": "uint256",
          "name": "value",
          "type": "uint256"
        }
      ],
      "name": "burn",
      "outputs": [],
      "stateMutability": "nonpayable",
      "type": "function"
    },
    {
      "inputs": [
        {
          "internalType": "address",
          "name": "account",
          "type": "address"
        },
        {
          "internalType": "uint256[]",
          "name": "ids",
          "type": "uint256[]"
        },
        {
          "internalType": "uint256[]",
          "name": "values",
          "type": "uint256[]"
        }
      ],
      "name": "burnBatch",
      "outputs": [],
      "stateMutability": "nonpayable",
      "type": "function"
    },
    {
      "inputs": [
        {
          "internalType": "address",
          "name": "account",
          "type": "address"
        },
        {
          "internalType": "address",
          "name": "operator",
          "type": "address"
        }
      ],
      "name": "isApprovedForAll",
      "outputs": [
        {
          "internalType": "bool",
          "name": "",
          "type": "bool"
        }
      ],
      "stateMutability": "view",
      "type": "function"
    },
    {
      "inputs": [],
      "name": "owner",
      "outputs": [
        {
          "internalType": "address",
          "name": "",
          "type": "address"
        }
      ],
      "stateMutability": "view",
      "type": "function"
    },
    {
      "inputs": [],
      "name": "paused",
      "outputs": [
        {
          "internalType": "bool",
          "name": "",
          "type": "bool"
        }
      ],
      "stateMutability": "view",
      "type": "function"
    },
    {
      "inputs": [],
      "name": "renounceOwnership",
      "outputs": [],
      "stateMutability": "nonpayable",
      "type": "function"
    },
    {
      "inputs": [
        {
          "internalType": "address",
          "name": "from",
          "type": "address"
        },
        {
          "internalType": "address",
          "name": "to",
          "type": "address"
        },
        {
          "internalType": "uint256[]",
          "name": "ids",
          "type": "uint256[]"
        },
        {
          "internalType": "uint256[]",
          "name": "amounts",
          "type": "uint256[]"
        },
        {
          "internalType": "bytes",
          "name": "data",
          "type": "bytes"
        }
      ],
      "name": "safeBatchTransferFrom",
      "outputs": [],
      "stateMutability": "nonpayable",
      "type": "function"
    },
    {
      "inputs": [
        {
          "internalType": "address",
          "name": "from",
          "type": "address"
        },
        {
          "internalType": "address",
          "name": "to",
          "type": "address"
        },
        {
          "internalType": "uint256",
          "name": "id",
          "type": "uint256"
        },
        {
          "internalType": "uint256",
          "name": "amount",
          "type": "uint256"
        },
        {
          "internalType": "bytes",
          "name": "data",
          "type": "bytes"
        }
      ],
      "name": "safeTransferFrom",
      "outputs": [],
      "stateMutability": "nonpayable",
      "type": "function"
    },
    {
      "inputs": [
        {
          "internalType": "address",
          "name": "operator",
          "type": "address"
        },
        {
          "internalType": "bool",
          "name": "approved",
          "type": "bool"
        }
      ],
      "name": "setApprovalForAll",
      "outputs": [],
      "stateMutability": "nonpayable",
      "type": "function"
    },
    {
      "inputs": [
        {
          "internalType": "bytes4",
          "name": "interfaceId",
          "type": "bytes4"
        }
      ],
      "name": "supportsInterface",
      "outputs": [
        {
          "internalType": "bool",
          "name": "",
          "type": "bool"
        }
      ],
      "stateMutability": "view",
      "type": "function"
    },
    {
      "inputs": [
        {
          "internalType": "address",
          "name": "newOwner",
          "type": "address"
        }
      ],
      "name": "transferOwnership",
      "outputs": [],
      "stateMutability": "nonpayable",
      "type": "function"
    },
    {
      "inputs": [
        {
          "internalType": "uint256",
          "name": "",
          "type": "uint256"
        }
      ],
      "name": "uri",
      "outputs": [
        {
          "internalType": "string",
          "name": "",
          "type": "string"
        }
      ],
      "stateMutability": "view",
      "type": "function"
    },
    {
      "inputs": [
        {
          "internalType": "string",
          "name": "newuri",
          "type": "string"
        }
      ],
      "name": "setURI",
      "outputs": [],
      "stateMutability": "nonpayable",
      "type": "function"
    },
    {
      "inputs": [],
      "name": "pause",
      "outputs": [],
      "stateMutability": "nonpayable",
      "type": "function"
    },
    {
      "inputs": [],
      "name": "unpause",
      "outputs": [],
      "stateMutability": "nonpayable",
      "type": "function"
    },
    {
      "inputs": [
        {
          "internalType": "address",
          "name": "account",
          "type": "address"
        },
        {
          "internalType": "uint256",
          "name": "id",
          "type": "uint256"
        },
        {
          "internalType": "uint256",
          "name": "amount",
          "type": "uint256"
        }
      ],
      "name": "mint",
      "outputs": [],
      "stateMutability": "payable",
      "type": "function"
    }
  ],
  "bytecode": "0x60806040523480156200001157600080fd5b506040518060600160405280602d815260200162004d32602d91396200003d816200011660201b60201c565b506200005e620000526200013260201b60201c565b6200013a60201b60201c565b6000600360146101000a81548160ff0219169083151502179055506200009e3360006001604051806020016040528060008152506200020060201b60201c565b620000c33360016002604051806020016040528060008152506200020060201b60201c565b620000e83360026003604051806020016040528060008152506200020060201b60201c565b62000110336003633b9aca00604051806020016040528060008152506200020060201b60201c565b62000efd565b80600290805190602001906200012e92919062000740565b5050565b600033905090565b6000600360009054906101000a900473ffffffffffffffffffffffffffffffffffffffff16905081600360006101000a81548173ffffffffffffffffffffffffffffffffffffffff021916908373ffffffffffffffffffffffffffffffffffffffff1602179055508173ffffffffffffffffffffffffffffffffffffffff168173ffffffffffffffffffffffffffffffffffffffff167f8be0079c531659141344cd1fd0a4f28419497f9722a3daafe3b4186f6b6457e060405160405180910390a35050565b600073ffffffffffffffffffffffffffffffffffffffff168473ffffffffffffffffffffffffffffffffffffffff16141562000273576040517f08c379a00000000000000000000000000000000000000000000000000000000081526004016200026a9062000a61565b60405180910390fd5b6000620002856200013260201b60201c565b9050620002be81600087620002a088620003c560201b60201c565b620002b188620003c560201b60201c565b876200048e60201b60201c565b8260008086815260200190815260200160002060008773ffffffffffffffffffffffffffffffffffffffff1673ffffffffffffffffffffffffffffffffffffffff16815260200190815260200160002060008282546200031f919062000af2565b925050819055508473ffffffffffffffffffffffffffffffffffffffff16600073ffffffffffffffffffffffffffffffffffffffff168273ffffffffffffffffffffffffffffffffffffffff167fc3d58168c5ae7397731d063d5bbf3d657854427343f4c083240f7aacaa2d0f6287876040516200039f92919062000a83565b60405180910390a4620003be816000878787876200050460201b60201c565b5050505050565b60606000600167ffffffffffffffff8111156200040b577f4e487b7100000000000000000000000000000000000000000000000000000000600052604160045260246000fd5b6040519080825280602002602001820160405280156200043a5781602001602082028036833780820191505090505b509050828160008151811062000479577f4e487b7100000000000000000000000000000000000000000000000000000000600052603260045260246000fd5b60200260200101818152505080915050919050565b6200049e6200070e60201b60201c565b15620004e1576040517f08c379a0000000000000000000000000000000000000000000000000000000008152600401620004d89062000a3f565b60405180910390fd5b620004fc8686868686866200072560201b62000fd51760201c565b505050505050565b620005308473ffffffffffffffffffffffffffffffffffffffff166200072d60201b62000fdd1760201c565b1562000706578373ffffffffffffffffffffffffffffffffffffffff1663f23a6e6187878686866040518663ffffffff1660e01b81526004016200057995949392919062000973565b602060405180830381600087803b1580156200059457600080fd5b505af1925050508015620005c857506040513d601f19601f82011682018060405250810190620005c5919062000807565b60015b6200067a57620005d762000ce8565b806308c379a014156200063b5750620005ef62000e41565b80620005fc57506200063d565b806040517f08c379a0000000000000000000000000000000000000000000000000000000008152600401620006329190620009d7565b60405180910390fd5b505b6040517f08c379a00000000000000000000000000000000000000000000000000000000081526004016200067190620009fb565b60405180910390fd5b63f23a6e6160e01b7bffffffffffffffffffffffffffffffffffffffffffffffffffffffff1916817bffffffffffffffffffffffffffffffffffffffffffffffffffffffff19161462000704576040517f08c379a0000000000000000000000000000000000000000000000000000000008152600401620006fb9062000a1d565b60405180910390fd5b505b505050505050565b6000600360149054906101000a900460ff16905090565b505050505050565b600080823b905060008111915050919050565b8280546200074e9062000bef565b90600052602060002090601f016020900481019282620007725760008555620007be565b82601f106200078d57805160ff1916838001178555620007be565b82800160010185558215620007be579182015b82811115620007bd578251825591602001919060010190620007a0565b5b509050620007cd9190620007d1565b5090565b5b80821115620007ec576000816000905550600101620007d2565b5090565b600081519050620008018162000ee3565b92915050565b6000602082840312156200081a57600080fd5b60006200082a84828501620007f0565b91505092915050565b6200083e8162000b4f565b82525050565b6000620008518262000aba565b6200085d818562000ad0565b93506200086f81856020860162000bb9565b6200087a8162000d0d565b840191505092915050565b6000620008928262000ac5565b6200089e818562000ae1565b9350620008b081856020860162000bb9565b620008bb8162000d0d565b840191505092915050565b6000620008d560348362000ae1565b9150620008e28262000d2b565b604082019050919050565b6000620008fc60288362000ae1565b9150620009098262000d7a565b604082019050919050565b60006200092360108362000ae1565b9150620009308262000dc9565b602082019050919050565b60006200094a60218362000ae1565b9150620009578262000df2565b604082019050919050565b6200096d8162000baf565b82525050565b600060a0820190506200098a600083018862000833565b62000999602083018762000833565b620009a8604083018662000962565b620009b7606083018562000962565b8181036080830152620009cb818462000844565b90509695505050505050565b60006020820190508181036000830152620009f3818462000885565b905092915050565b6000602082019050818103600083015262000a1681620008c6565b9050919050565b6000602082019050818103600083015262000a3881620008ed565b9050919050565b6000602082019050818103600083015262000a5a8162000914565b9050919050565b6000602082019050818103600083015262000a7c816200093b565b9050919050565b600060408201905062000a9a600083018562000962565b62000aa9602083018462000962565b9392505050565b6000604051905090565b600081519050919050565b600081519050919050565b600082825260208201905092915050565b600082825260208201905092915050565b600062000aff8262000baf565b915062000b0c8362000baf565b9250827fffffffffffffffffffffffffffffffffffffffffffffffffffffffffffffffff0382111562000b445762000b4362000c5b565b5b828201905092915050565b600062000b5c8262000b8f565b9050919050565b60007fffffffff0000000000000000000000000000000000000000000000000000000082169050919050565b600073ffffffffffffffffffffffffffffffffffffffff82169050919050565b6000819050919050565b60005b8381101562000bd957808201518184015260208101905062000bbc565b8381111562000be9576000848401525b50505050565b6000600282049050600182168062000c0857607f821691505b6020821081141562000c1f5762000c1e62000c8a565b5b50919050565b62000c308262000d0d565b810181811067ffffffffffffffff8211171562000c525762000c5162000cb9565b5b80604052505050565b7f4e487b7100000000000000000000000000000000000000000000000000000000600052601160045260246000fd5b7f4e487b7100000000000000000000000000000000000000000000000000000000600052602260045260246000fd5b7f4e487b7100000000000000000000000000000000000000000000000000000000600052604160045260246000fd5b600060033d111562000d0a5760046000803e62000d0760005162000d1e565b90505b90565b6000601f19601f8301169050919050565b60008160e01c9050919050565b7f455243313135353a207472616e7366657220746f206e6f6e204552433131353560008201527f526563656976657220696d706c656d656e746572000000000000000000000000602082015250565b7f455243313135353a204552433131353552656365697665722072656a6563746560008201527f6420746f6b656e73000000000000000000000000000000000000000000000000602082015250565b7f5061757361626c653a2070617573656400000000000000000000000000000000600082015250565b7f455243313135353a206d696e7420746f20746865207a65726f2061646472657360008201527f7300000000000000000000000000000000000000000000000000000000000000602082015250565b600060443d101562000e535762000ee0565b62000e5d62000ab0565b60043d036004823e80513d602482011167ffffffffffffffff8211171562000e8757505062000ee0565b808201805167ffffffffffffffff81111562000ea7575050505062000ee0565b80602083010160043d03850181111562000ec657505050505062000ee0565b62000ed78260200185018662000c25565b82955050505050505b90565b62000eee8162000b63565b811462000efa57600080fd5b50565b613e258062000f0d6000396000f3fe6080604052600436106101345760003560e01c80636d0cc833116100ab578063a22cb4651161006f578063a22cb465146103e0578063a45108ac14610409578063e985e9c514610434578063f242432a14610471578063f2fde38b1461049a578063f5298aca146104c357610134565b80636d0cc83314610331578063715018a61461035c5780638293989e146103735780638456cb591461039e5780638da5cb5b146103b557610134565b80632eb2c2d6116100fd5780632eb2c2d6146102355780633f4ba83a1461025e5780634e1273f4146102755780635c975abb146102b25780636b20c454146102dd5780636c7880be1461030657610134565b8062fdd58e1461013957806301ffc9a71461017657806302fe5305146101b35780630e89341c146101dc578063156e29f614610219575b600080fd5b34801561014557600080fd5b50610160600480360381019061015b9190612aee565b6104ec565b60405161016d91906133ee565b60405180910390f35b34801561018257600080fd5b5061019d60048036038101906101989190612be5565b6105b5565b6040516101aa9190613171565b60405180910390f35b3480156101bf57600080fd5b506101da60048036038101906101d59190612c37565b610697565b005b3480156101e857600080fd5b5061020360048036038101906101fe9190612c78565b61071f565b604051610210919061318c565b60405180910390f35b610233600480360381019061022e9190612b2a565b6107b3565b005b34801561024157600080fd5b5061025c600480360381019061025791906128e5565b61081d565b005b34801561026a57600080fd5b506102736108be565b005b34801561028157600080fd5b5061029c60048036038101906102979190612b79565b610944565b6040516102a99190613118565b60405180910390f35b3480156102be57600080fd5b506102c7610af5565b6040516102d49190613171565b60405180910390f35b3480156102e957600080fd5b5061030460048036038101906102ff9190612a33565b610b0c565b005b34801561031257600080fd5b5061031b610ba9565b60405161032891906133ee565b60405180910390f35b34801561033d57600080fd5b50610346610bae565b60405161035391906133ee565b60405180910390f35b34801561036857600080fd5b50610371610bb3565b005b34801561037f57600080fd5b50610388610c3b565b60405161039591906133ee565b60405180910390f35b3480156103aa57600080fd5b506103b3610c40565b005b3480156103c157600080fd5b506103ca610cc6565b6040516103d7919061303b565b60405180910390f35b3480156103ec57600080fd5b5061040760048036038101906104029190612ab2565b610cf0565b005b34801561041557600080fd5b5061041e610d06565b60405161042b91906133ee565b60405180910390f35b34801561044057600080fd5b5061045b600480360381019061045691906128a9565b610d0b565b6040516104689190613171565b60405180910390f35b34801561047d57600080fd5b50610498600480360381019061049391906129a4565b610d9f565b005b3480156104a657600080fd5b506104c160048036038101906104bc9190612880565b610e40565b005b3480156104cf57600080fd5b506104ea60048036038101906104e59190612b2a565b610f38565b005b60008073ffffffffffffffffffffffffffffffffffffffff168373ffffffffffffffffffffffffffffffffffffffff16141561055d576040517f08c379a00000000000000000000000000000000000000000000000000000000081526004016105549061320e565b60405180910390fd5b60008083815260200190815260200160002060008473ffffffffffffffffffffffffffffffffffffffff1673ffffffffffffffffffffffffffffffffffffffff16815260200190815260200160002054905092915050565b60007fd9b67a26000000000000000000000000000000000000000000000000000000007bffffffffffffffffffffffffffffffffffffffffffffffffffffffff1916827bffffffffffffffffffffffffffffffffffffffffffffffffffffffff1916148061068057507f0e89341c000000000000000000000000000000000000000000000000000000007bffffffffffffffffffffffffffffffffffffffffffffffffffffffff1916827bffffffffffffffffffffffffffffffffffffffffffffffffffffffff1916145b80610690575061068f82610ff0565b5b9050919050565b61069f61105a565b73ffffffffffffffffffffffffffffffffffffffff166106bd610cc6565b73ffffffffffffffffffffffffffffffffffffffff1614610713576040517f08c379a000000000000000000000000000000000000000000000000000000000815260040161070a9061332e565b60405180910390fd5b61071c81611062565b50565b60606002805461072e9061368e565b80601f016020809104026020016040519081016040528092919081815260200182805461075a9061368e565b80156107a75780601f1061077c576101008083540402835291602001916107a7565b820191906000526020600020905b81548152906001019060200180831161078a57829003601f168201915b50505050509050919050565b67016345785d8a000034146107fd576040517f08c379a00000000000000000000000000000000000000000000000000000000081526004016107f49061334e565b60405180910390fd5b6108188383836040518060200160405280600081525061107c565b505050565b61082561105a565b73ffffffffffffffffffffffffffffffffffffffff168573ffffffffffffffffffffffffffffffffffffffff16148061086b575061086a8561086561105a565b610d0b565b5b6108aa576040517f08c379a00000000000000000000000000000000000000000000000000000000081526004016108a1906132ce565b60405180910390fd5b6108b78585858585611212565b5050505050565b6108c661105a565b73ffffffffffffffffffffffffffffffffffffffff166108e4610cc6565b73ffffffffffffffffffffffffffffffffffffffff161461093a576040517f08c379a00000000000000000000000000000000000000000000000000000000081526004016109319061332e565b60405180910390fd5b610942611572565b565b6060815183511461098a576040517f08c379a00000000000000000000000000000000000000000000000000000000081526004016109819061338e565b60405180910390fd5b6000835167ffffffffffffffff8111156109cd577f4e487b7100000000000000000000000000000000000000000000000000000000600052604160045260246000fd5b6040519080825280602002602001820160405280156109fb5781602001602082028036833780820191505090505b50905060005b8451811015610aea57610a94858281518110610a46577f4e487b7100000000000000000000000000000000000000000000000000000000600052603260045260246000fd5b6020026020010151858381518110610a87577f4e487b7100000000000000000000000000000000000000000000000000000000600052603260045260246000fd5b60200260200101516104ec565b828281518110610acd577f4e487b7100000000000000000000000000000000000000000000000000000000600052603260045260246000fd5b60200260200101818152505080610ae3906136f1565b9050610a01565b508091505092915050565b6000600360149054906101000a900460ff16905090565b610b1461105a565b73ffffffffffffffffffffffffffffffffffffffff168373ffffffffffffffffffffffffffffffffffffffff161480610b5a5750610b5983610b5461105a565b610d0b565b5b610b99576040517f08c379a0000000000000000000000000000000000000000000000000000000008152600401610b909061326e565b60405180910390fd5b610ba4838383611614565b505050565b600081565b600181565b610bbb61105a565b73ffffffffffffffffffffffffffffffffffffffff16610bd9610cc6565b73ffffffffffffffffffffffffffffffffffffffff1614610c2f576040517f08c379a0000000000000000000000000000000000000000000000000000000008152600401610c269061332e565b60405180910390fd5b610c396000611911565b565b600381565b610c4861105a565b73ffffffffffffffffffffffffffffffffffffffff16610c66610cc6565b73ffffffffffffffffffffffffffffffffffffffff1614610cbc576040517f08c379a0000000000000000000000000000000000000000000000000000000008152600401610cb39061332e565b60405180910390fd5b610cc46119d7565b565b6000600360009054906101000a900473ffffffffffffffffffffffffffffffffffffffff16905090565b610d02610cfb61105a565b8383611a7a565b5050565b600281565b6000600160008473ffffffffffffffffffffffffffffffffffffffff1673ffffffffffffffffffffffffffffffffffffffff16815260200190815260200160002060008373ffffffffffffffffffffffffffffffffffffffff1673ffffffffffffffffffffffffffffffffffffffff16815260200190815260200160002060009054906101000a900460ff16905092915050565b610da761105a565b73ffffffffffffffffffffffffffffffffffffffff168573ffffffffffffffffffffffffffffffffffffffff161480610ded5750610dec85610de761105a565b610d0b565b5b610e2c576040517f08c379a0000000000000000000000000000000000000000000000000000000008152600401610e239061326e565b60405180910390fd5b610e398585858585611be7565b5050505050565b610e4861105a565b73ffffffffffffffffffffffffffffffffffffffff16610e66610cc6565b73ffffffffffffffffffffffffffffffffffffffff1614610ebc576040517f08c379a0000000000000000000000000000000000000000000000000000000008152600401610eb39061332e565b60405180910390fd5b600073ffffffffffffffffffffffffffffffffffffffff168173ffffffffffffffffffffffffffffffffffffffff161415610f2c576040517f08c379a0000000000000000000000000000000000000000000000000000000008152600401610f239061322e565b60405180910390fd5b610f3581611911565b50565b610f4061105a565b73ffffffffffffffffffffffffffffffffffffffff168373ffffffffffffffffffffffffffffffffffffffff161480610f865750610f8583610f8061105a565b610d0b565b5b610fc5576040517f08c379a0000000000000000000000000000000000000000000000000000000008152600401610fbc9061326e565b60405180910390fd5b610fd0838383611e69565b505050565b505050505050565b600080823b905060008111915050919050565b60007f01ffc9a7000000000000000000000000000000000000000000000000000000007bffffffffffffffffffffffffffffffffffffffffffffffffffffffff1916827bffffffffffffffffffffffffffffffffffffffffffffffffffffffff1916149050919050565b600033905090565b8060029080519060200190611078929190612578565b5050565b600073ffffffffffffffffffffffffffffffffffffffff168473ffffffffffffffffffffffffffffffffffffffff1614156110ec576040517f08c379a00000000000000000000000000000000000000000000000000000000081526004016110e3906133ce565b60405180910390fd5b60006110f661105a565b90506111178160008761110888612086565b61111188612086565b8761214c565b8260008086815260200190815260200160002060008773ffffffffffffffffffffffffffffffffffffffff1673ffffffffffffffffffffffffffffffffffffffff16815260200190815260200160002060008282546111769190613582565b925050819055508473ffffffffffffffffffffffffffffffffffffffff16600073ffffffffffffffffffffffffffffffffffffffff168273ffffffffffffffffffffffffffffffffffffffff167fc3d58168c5ae7397731d063d5bbf3d657854427343f4c083240f7aacaa2d0f6287876040516111f4929190613409565b60405180910390a461120b816000878787876121aa565b5050505050565b8151835114611256576040517f08c379a000000000000000000000000000000000000000000000000000000000815260040161124d906133ae565b60405180910390fd5b600073ffffffffffffffffffffffffffffffffffffffff168473ffffffffffffffffffffffffffffffffffffffff1614156112c6576040517f08c379a00000000000000000000000000000000000000000000000000000000081526004016112bd906132ae565b60405180910390fd5b60006112d061105a565b90506112e081878787878761214c565b60005b84518110156114dd576000858281518110611327577f4e487b7100000000000000000000000000000000000000000000000000000000600052603260045260246000fd5b60200260200101519050600085838151811061136c577f4e487b7100000000000000000000000000000000000000000000000000000000600052603260045260246000fd5b60200260200101519050600080600084815260200190815260200160002060008b73ffffffffffffffffffffffffffffffffffffffff1673ffffffffffffffffffffffffffffffffffffffff1681526020019081526020016000205490508181101561140d576040517f08c379a00000000000000000000000000000000000000000000000000000000081526004016114049061330e565b60405180910390fd5b81810360008085815260200190815260200160002060008c73ffffffffffffffffffffffffffffffffffffffff1673ffffffffffffffffffffffffffffffffffffffff168152602001908152602001600020819055508160008085815260200190815260200160002060008b73ffffffffffffffffffffffffffffffffffffffff1673ffffffffffffffffffffffffffffffffffffffff16815260200190815260200160002060008282546114c29190613582565b92505081905550505050806114d6906136f1565b90506112e3565b508473ffffffffffffffffffffffffffffffffffffffff168673ffffffffffffffffffffffffffffffffffffffff168273ffffffffffffffffffffffffffffffffffffffff167f4a39dc06d4c0dbc64b70af90fd698a233a518aa5d07e595d983b8c0526c8f7fb878760405161155492919061313a565b60405180910390a461156a818787878787612391565b505050505050565b61157a610af5565b6115b9576040517f08c379a00000000000000000000000000000000000000000000000000000000081526004016115b0906131ee565b60405180910390fd5b6000600360146101000a81548160ff0219169083151502179055507f5db9ee0a495bf2e6ff9c91a7834c1ba4fdd244a5e8aa4e537bd38aeae4b073aa6115fd61105a565b60405161160a919061303b565b60405180910390a1565b600073ffffffffffffffffffffffffffffffffffffffff168373ffffffffffffffffffffffffffffffffffffffff161415611684576040517f08c379a000000000000000000000000000000000000000000000000000000000815260040161167b906132ee565b60405180910390fd5b80518251146116c8576040517f08c379a00000000000000000000000000000000000000000000000000000000081526004016116bf906133ae565b60405180910390fd5b60006116d261105a565b90506116f28185600086866040518060200160405280600081525061214c565b60005b835181101561188b576000848281518110611739577f4e487b7100000000000000000000000000000000000000000000000000000000600052603260045260246000fd5b60200260200101519050600084838151811061177e577f4e487b7100000000000000000000000000000000000000000000000000000000600052603260045260246000fd5b60200260200101519050600080600084815260200190815260200160002060008973ffffffffffffffffffffffffffffffffffffffff1673ffffffffffffffffffffffffffffffffffffffff1681526020019081526020016000205490508181101561181f576040517f08c379a00000000000000000000000000000000000000000000000000000000081526004016118169061324e565b60405180910390fd5b81810360008085815260200190815260200160002060008a73ffffffffffffffffffffffffffffffffffffffff1673ffffffffffffffffffffffffffffffffffffffff168152602001908152602001600020819055505050508080611883906136f1565b9150506116f5565b50600073ffffffffffffffffffffffffffffffffffffffff168473ffffffffffffffffffffffffffffffffffffffff168273ffffffffffffffffffffffffffffffffffffffff167f4a39dc06d4c0dbc64b70af90fd698a233a518aa5d07e595d983b8c0526c8f7fb868660405161190392919061313a565b60405180910390a450505050565b6000600360009054906101000a900473ffffffffffffffffffffffffffffffffffffffff16905081600360006101000a81548173ffffffffffffffffffffffffffffffffffffffff021916908373ffffffffffffffffffffffffffffffffffffffff1602179055508173ffffffffffffffffffffffffffffffffffffffff168173ffffffffffffffffffffffffffffffffffffffff167f8be0079c531659141344cd1fd0a4f28419497f9722a3daafe3b4186f6b6457e060405160405180910390a35050565b6119df610af5565b15611a1f576040517f08c379a0000000000000000000000000000000000000000000000000000000008152600401611a169061328e565b60405180910390fd5b6001600360146101000a81548160ff0219169083151502179055507f62e78cea01bee320cd4e420270b5ea74000d11b0c9f74754ebdbfc544b05a258611a6361105a565b604051611a70919061303b565b60405180910390a1565b8173ffffffffffffffffffffffffffffffffffffffff168373ffffffffffffffffffffffffffffffffffffffff161415611ae9576040517f08c379a0000000000000000000000000000000000000000000000000000000008152600401611ae09061336e565b60405180910390fd5b80600160008573ffffffffffffffffffffffffffffffffffffffff1673ffffffffffffffffffffffffffffffffffffffff16815260200190815260200160002060008473ffffffffffffffffffffffffffffffffffffffff1673ffffffffffffffffffffffffffffffffffffffff16815260200190815260200160002060006101000a81548160ff0219169083151502179055508173ffffffffffffffffffffffffffffffffffffffff168373ffffffffffffffffffffffffffffffffffffffff167f17307eab39ab6107e8899845ad3d59bd9653f200f220920489ca2b5937696c3183604051611bda9190613171565b60405180910390a3505050565b600073ffffffffffffffffffffffffffffffffffffffff168473ffffffffffffffffffffffffffffffffffffffff161415611c57576040517f08c379a0000000000000000000000000000000000000000000000000000000008152600401611c4e906132ae565b60405180910390fd5b6000611c6161105a565b9050611c81818787611c7288612086565b611c7b88612086565b8761214c565b600080600086815260200190815260200160002060008873ffffffffffffffffffffffffffffffffffffffff1673ffffffffffffffffffffffffffffffffffffffff16815260200190815260200160002054905083811015611d18576040517f08c379a0000000000000000000000000000000000000000000000000000000008152600401611d0f9061330e565b60405180910390fd5b83810360008087815260200190815260200160002060008973ffffffffffffffffffffffffffffffffffffffff1673ffffffffffffffffffffffffffffffffffffffff168152602001908152602001600020819055508360008087815260200190815260200160002060008873ffffffffffffffffffffffffffffffffffffffff1673ffffffffffffffffffffffffffffffffffffffff1681526020019081526020016000206000828254611dcd9190613582565b925050819055508573ffffffffffffffffffffffffffffffffffffffff168773ffffffffffffffffffffffffffffffffffffffff168373ffffffffffffffffffffffffffffffffffffffff167fc3d58168c5ae7397731d063d5bbf3d657854427343f4c083240f7aacaa2d0f628888604051611e4a929190613409565b60405180910390a4611e608288888888886121aa565b50505050505050565b600073ffffffffffffffffffffffffffffffffffffffff168373ffffffffffffffffffffffffffffffffffffffff161415611ed9576040517f08c379a0000000000000000000000000000000000000000000000000000000008152600401611ed0906132ee565b60405180910390fd5b6000611ee361105a565b9050611f1381856000611ef587612086565b611efe87612086565b6040518060200160405280600081525061214c565b600080600085815260200190815260200160002060008673ffffffffffffffffffffffffffffffffffffffff1673ffffffffffffffffffffffffffffffffffffffff16815260200190815260200160002054905082811015611faa576040517f08c379a0000000000000000000000000000000000000000000000000000000008152600401611fa19061324e565b60405180910390fd5b82810360008086815260200190815260200160002060008773ffffffffffffffffffffffffffffffffffffffff1673ffffffffffffffffffffffffffffffffffffffff16815260200190815260200160002081905550600073ffffffffffffffffffffffffffffffffffffffff168573ffffffffffffffffffffffffffffffffffffffff168373ffffffffffffffffffffffffffffffffffffffff167fc3d58168c5ae7397731d063d5bbf3d657854427343f4c083240f7aacaa2d0f628787604051612077929190613409565b60405180910390a45050505050565b60606000600167ffffffffffffffff8111156120cb577f4e487b7100000000000000000000000000000000000000000000000000000000600052604160045260246000fd5b6040519080825280602002602001820160405280156120f95781602001602082028036833780820191505090505b5090508281600081518110612137577f4e487b7100000000000000000000000000000000000000000000000000000000600052603260045260246000fd5b60200260200101818152505080915050919050565b612154610af5565b15612194576040517f08c379a000000000000000000000000000000000000000000000000000000000815260040161218b9061328e565b60405180910390fd5b6121a2868686868686610fd5565b505050505050565b6121c98473ffffffffffffffffffffffffffffffffffffffff16610fdd565b15612389578373ffffffffffffffffffffffffffffffffffffffff1663f23a6e6187878686866040518663ffffffff1660e01b815260040161220f9594939291906130be565b602060405180830381600087803b15801561222957600080fd5b505af192505050801561225a57506040513d601f19601f820116820180604052508101906122579190612c0e565b60015b612300576122666137c7565b806308c379a014156122c3575061227b613cfd565b8061228657506122c5565b806040517f08c379a00000000000000000000000000000000000000000000000000000000081526004016122ba919061318c565b60405180910390fd5b505b6040517f08c379a00000000000000000000000000000000000000000000000000000000081526004016122f7906131ae565b60405180910390fd5b63f23a6e6160e01b7bffffffffffffffffffffffffffffffffffffffffffffffffffffffff1916817bffffffffffffffffffffffffffffffffffffffffffffffffffffffff191614612387576040517f08c379a000000000000000000000000000000000000000000000000000000000815260040161237e906131ce565b60405180910390fd5b505b505050505050565b6123b08473ffffffffffffffffffffffffffffffffffffffff16610fdd565b15612570578373ffffffffffffffffffffffffffffffffffffffff1663bc197c8187878686866040518663ffffffff1660e01b81526004016123f6959493929190613056565b602060405180830381600087803b15801561241057600080fd5b505af192505050801561244157506040513d601f19601f8201168201806040525081019061243e9190612c0e565b60015b6124e75761244d6137c7565b806308c379a014156124aa5750612462613cfd565b8061246d57506124ac565b806040517f08c379a00000000000000000000000000000000000000000000000000000000081526004016124a1919061318c565b60405180910390fd5b505b6040517f08c379a00000000000000000000000000000000000000000000000000000000081526004016124de906131ae565b60405180910390fd5b63bc197c8160e01b7bffffffffffffffffffffffffffffffffffffffffffffffffffffffff1916817bffffffffffffffffffffffffffffffffffffffffffffffffffffffff19161461256e576040517f08c379a0000000000000000000000000000000000000000000000000000000008152600401612565906131ce565b60405180910390fd5b505b505050505050565b8280546125849061368e565b90600052602060002090601f0160209004810192826125a657600085556125ed565b82601f106125bf57805160ff19168380011785556125ed565b828001600101855582156125ed579182015b828111156125ec5782518255916020019190600101906125d1565b5b5090506125fa91906125fe565b5090565b5b808211156126175760008160009055506001016125ff565b5090565b600061262e61262984613457565b613432565b9050808382526020820190508285602086028201111561264d57600080fd5b60005b8581101561267d5781612663888261276f565b845260208401935060208301925050600181019050612650565b5050509392505050565b600061269a61269584613483565b613432565b905080838252602082019050828560208602820111156126b957600080fd5b60005b858110156126e957816126cf888261286b565b8452602084019350602083019250506001810190506126bc565b5050509392505050565b6000612706612701846134af565b613432565b90508281526020810184848401111561271e57600080fd5b61272984828561364c565b509392505050565b600061274461273f846134e0565b613432565b90508281526020810184848401111561275c57600080fd5b61276784828561364c565b509392505050565b60008135905061277e81613d93565b92915050565b600082601f83011261279557600080fd5b81356127a584826020860161261b565b91505092915050565b600082601f8301126127bf57600080fd5b81356127cf848260208601612687565b91505092915050565b6000813590506127e781613daa565b92915050565b6000813590506127fc81613dc1565b92915050565b60008151905061281181613dc1565b92915050565b600082601f83011261282857600080fd5b81356128388482602086016126f3565b91505092915050565b600082601f83011261285257600080fd5b8135612862848260208601612731565b91505092915050565b60008135905061287a81613dd8565b92915050565b60006020828403121561289257600080fd5b60006128a08482850161276f565b91505092915050565b600080604083850312156128bc57600080fd5b60006128ca8582860161276f565b92505060206128db8582860161276f565b9150509250929050565b600080600080600060a086880312156128fd57600080fd5b600061290b8882890161276f565b955050602061291c8882890161276f565b945050604086013567ffffffffffffffff81111561293957600080fd5b612945888289016127ae565b935050606086013567ffffffffffffffff81111561296257600080fd5b61296e888289016127ae565b925050608086013567ffffffffffffffff81111561298b57600080fd5b61299788828901612817565b9150509295509295909350565b600080600080600060a086880312156129bc57600080fd5b60006129ca8882890161276f565b95505060206129db8882890161276f565b94505060406129ec8882890161286b565b93505060606129fd8882890161286b565b925050608086013567ffffffffffffffff811115612a1a57600080fd5b612a2688828901612817565b9150509295509295909350565b600080600060608486031215612a4857600080fd5b6000612a568682870161276f565b935050602084013567ffffffffffffffff811115612a7357600080fd5b612a7f868287016127ae565b925050604084013567ffffffffffffffff811115612a9c57600080fd5b612aa8868287016127ae565b9150509250925092565b60008060408385031215612ac557600080fd5b6000612ad38582860161276f565b9250506020612ae4858286016127d8565b9150509250929050565b60008060408385031215612b0157600080fd5b6000612b0f8582860161276f565b9250506020612b208582860161286b565b9150509250929050565b600080600060608486031215612b3f57600080fd5b6000612b4d8682870161276f565b9350506020612b5e8682870161286b565b9250506040612b6f8682870161286b565b9150509250925092565b60008060408385031215612b8c57600080fd5b600083013567ffffffffffffffff811115612ba657600080fd5b612bb285828601612784565b925050602083013567ffffffffffffffff811115612bcf57600080fd5b612bdb858286016127ae565b9150509250929050565b600060208284031215612bf757600080fd5b6000612c05848285016127ed565b91505092915050565b600060208284031215612c2057600080fd5b6000612c2e84828501612802565b91505092915050565b600060208284031215612c4957600080fd5b600082013567ffffffffffffffff811115612c6357600080fd5b612c6f84828501612841565b91505092915050565b600060208284031215612c8a57600080fd5b6000612c988482850161286b565b91505092915050565b6000612cad838361301d565b60208301905092915050565b612cc2816135d8565b82525050565b6000612cd382613521565b612cdd818561354f565b9350612ce883613511565b8060005b83811015612d19578151612d008882612ca1565b9750612d0b83613542565b925050600181019050612cec565b5085935050505092915050565b612d2f816135ea565b82525050565b6000612d408261352c565b612d4a8185613560565b9350612d5a81856020860161365b565b612d63816137e9565b840191505092915050565b6000612d7982613537565b612d838185613571565b9350612d9381856020860161365b565b612d9c816137e9565b840191505092915050565b6000612db4603483613571565b9150612dbf82613807565b604082019050919050565b6000612dd7602883613571565b9150612de282613856565b604082019050919050565b6000612dfa601483613571565b9150612e05826138a5565b602082019050919050565b6000612e1d602b83613571565b9150612e28826138ce565b604082019050919050565b6000612e40602683613571565b9150612e4b8261391d565b604082019050919050565b6000612e63602483613571565b9150612e6e8261396c565b604082019050919050565b6000612e86602983613571565b9150612e91826139bb565b604082019050919050565b6000612ea9601083613571565b9150612eb482613a0a565b602082019050919050565b6000612ecc602583613571565b9150612ed782613a33565b604082019050919050565b6000612eef603283613571565b9150612efa82613a82565b604082019050919050565b6000612f12602383613571565b9150612f1d82613ad1565b604082019050919050565b6000612f35602a83613571565b9150612f4082613b20565b604082019050919050565b6000612f58602083613571565b9150612f6382613b6f565b602082019050919050565b6000612f7b601483613571565b9150612f8682613b98565b602082019050919050565b6000612f9e602983613571565b9150612fa982613bc1565b604082019050919050565b6000612fc1602983613571565b9150612fcc82613c10565b604082019050919050565b6000612fe4602883613571565b9150612fef82613c5f565b604082019050919050565b6000613007602183613571565b915061301282613cae565b604082019050919050565b61302681613642565b82525050565b61303581613642565b82525050565b60006020820190506130506000830184612cb9565b92915050565b600060a08201905061306b6000830188612cb9565b6130786020830187612cb9565b818103604083015261308a8186612cc8565b9050818103606083015261309e8185612cc8565b905081810360808301526130b28184612d35565b90509695505050505050565b600060a0820190506130d36000830188612cb9565b6130e06020830187612cb9565b6130ed604083018661302c565b6130fa606083018561302c565b818103608083015261310c8184612d35565b90509695505050505050565b600060208201905081810360008301526131328184612cc8565b905092915050565b600060408201905081810360008301526131548185612cc8565b905081810360208301526131688184612cc8565b90509392505050565b60006020820190506131866000830184612d26565b92915050565b600060208201905081810360008301526131a68184612d6e565b905092915050565b600060208201905081810360008301526131c781612da7565b9050919050565b600060208201905081810360008301526131e781612dca565b9050919050565b6000602082019050818103600083015261320781612ded565b9050919050565b6000602082019050818103600083015261322781612e10565b9050919050565b6000602082019050818103600083015261324781612e33565b9050919050565b6000602082019050818103600083015261326781612e56565b9050919050565b6000602082019050818103600083015261328781612e79565b9050919050565b600060208201905081810360008301526132a781612e9c565b9050919050565b600060208201905081810360008301526132c781612ebf565b9050919050565b600060208201905081810360008301526132e781612ee2565b9050919050565b6000602082019050818103600083015261330781612f05565b9050919050565b6000602082019050818103600083015261332781612f28565b9050919050565b6000602082019050818103600083015261334781612f4b565b9050919050565b6000602082019050818103600083015261336781612f6e565b9050919050565b6000602082019050818103600083015261338781612f91565b9050919050565b600060208201905081810360008301526133a781612fb4565b9050919050565b600060208201905081810360008301526133c781612fd7565b9050919050565b600060208201905081810360008301526133e781612ffa565b9050919050565b6000602082019050613403600083018461302c565b92915050565b600060408201905061341e600083018561302c565b61342b602083018461302c565b9392505050565b600061343c61344d565b905061344882826136c0565b919050565b6000604051905090565b600067ffffffffffffffff82111561347257613471613798565b5b602082029050602081019050919050565b600067ffffffffffffffff82111561349e5761349d613798565b5b602082029050602081019050919050565b600067ffffffffffffffff8211156134ca576134c9613798565b5b6134d3826137e9565b9050602081019050919050565b600067ffffffffffffffff8211156134fb576134fa613798565b5b613504826137e9565b9050602081019050919050565b6000819050602082019050919050565b600081519050919050565b600081519050919050565b600081519050919050565b6000602082019050919050565b600082825260208201905092915050565b600082825260208201905092915050565b600082825260208201905092915050565b600061358d82613642565b915061359883613642565b9250827fffffffffffffffffffffffffffffffffffffffffffffffffffffffffffffffff038211156135cd576135cc61373a565b5b828201905092915050565b60006135e382613622565b9050919050565b60008115159050919050565b60007fffffffff0000000000000000000000000000000000000000000000000000000082169050919050565b600073ffffffffffffffffffffffffffffffffffffffff82169050919050565b6000819050919050565b82818337600083830152505050565b60005b8381101561367957808201518184015260208101905061365e565b83811115613688576000848401525b50505050565b600060028204905060018216806136a657607f821691505b602082108114156136ba576136b9613769565b5b50919050565b6136c9826137e9565b810181811067ffffffffffffffff821117156136e8576136e7613798565b5b80604052505050565b60006136fc82613642565b91507fffffffffffffffffffffffffffffffffffffffffffffffffffffffffffffffff82141561372f5761372e61373a565b5b600182019050919050565b7f4e487b7100000000000000000000000000000000000000000000000000000000600052601160045260246000fd5b7f4e487b7100000000000000000000000000000000000000000000000000000000600052602260045260246000fd5b7f4e487b7100000000000000000000000000000000000000000000000000000000600052604160045260246000fd5b600060033d11156137e65760046000803e6137e36000516137fa565b90505b90565b6000601f19601f8301169050919050565b60008160e01c9050919050565b7f455243313135353a207472616e7366657220746f206e6f6e204552433131353560008201527f526563656976657220696d706c656d656e746572000000000000000000000000602082015250565b7f455243313135353a204552433131353552656365697665722072656a6563746560008201527f6420746f6b656e73000000000000000000000000000000000000000000000000602082015250565b7f5061757361626c653a206e6f7420706175736564000000000000000000000000600082015250565b7f455243313135353a2062616c616e636520717565727920666f7220746865207a60008201527f65726f2061646472657373000000000000000000000000000000000000000000602082015250565b7f4f776e61626c653a206e6577206f776e657220697320746865207a65726f206160008201527f6464726573730000000000000000000000000000000000000000000000000000602082015250565b7f455243313135353a206275726e20616d6f756e7420657863656564732062616c60008201527f616e636500000000000000000000000000000000000000000000000000000000602082015250565b7f455243313135353a2063616c6c6572206973206e6f74206f776e6572206e6f7260008201527f20617070726f7665640000000000000000000000000000000000000000000000602082015250565b7f5061757361626c653a2070617573656400000000000000000000000000000000600082015250565b7f455243313135353a207472616e7366657220746f20746865207a65726f20616460008201527f6472657373000000000000000000000000000000000000000000000000000000602082015250565b7f455243313135353a207472616e736665722063616c6c6572206973206e6f742060008201527f6f776e6572206e6f7220617070726f7665640000000000000000000000000000602082015250565b7f455243313135353a206275726e2066726f6d20746865207a65726f206164647260008201527f6573730000000000000000000000000000000000000000000000000000000000602082015250565b7f455243313135353a20696e73756666696369656e742062616c616e636520666f60008201527f72207472616e7366657200000000000000000000000000000000000000000000602082015250565b7f4f776e61626c653a2063616c6c6572206973206e6f7420746865206f776e6572600082015250565b7f4e65656420746f2073656e6420302e3120455448000000000000000000000000600082015250565b7f455243313135353a2073657474696e6720617070726f76616c2073746174757360008201527f20666f722073656c660000000000000000000000000000000000000000000000602082015250565b7f455243313135353a206163636f756e747320616e6420696473206c656e67746860008201527f206d69736d617463680000000000000000000000000000000000000000000000602082015250565b7f455243313135353a2069647320616e6420616d6f756e7473206c656e6774682060008201527f6d69736d61746368000000000000000000000000000000000000000000000000602082015250565b7f455243313135353a206d696e7420746f20746865207a65726f2061646472657360008201527f7300000000000000000000000000000000000000000000000000000000000000602082015250565b600060443d1015613d0d57613d90565b613d1561344d565b60043d036004823e80513d602482011167ffffffffffffffff82111715613d3d575050613d90565b808201805167ffffffffffffffff811115613d5b5750505050613d90565b80602083010160043d038501811115613d78575050505050613d90565b613d87826020018501866136c0565b82955050505050505b90565b613d9c816135d8565b8114613da757600080fd5b50565b613db3816135ea565b8114613dbe57600080fd5b50565b613dca816135f6565b8114613dd557600080fd5b50565b613de181613642565b8114613dec57600080fd5b5056fea2646970667358221220e34c9d91ca1d2bbb046749e7e5bfdf3ac34300b33e6b34565401dda96052d5f964736f6c6343000802003368747470733a2f2f6f6363617a776f74713235372e7573656d6f72616c69732e636f6d2f7b69647d2e6a736f6e",
  "immutableReferences": {},
  "source": "// SPDX-License-Identifier: MIT\r\npragma solidity ^0.8.2;\r\n\r\nimport \"@openzeppelin/contracts/token/ERC1155/ERC1155.sol\";\r\nimport \"@openzeppelin/contracts/access/Ownable.sol\";\r\nimport \"@openzeppelin/contracts/security/Pausable.sol\";\r\nimport \"@openzeppelin/contracts/token/ERC1155/extensions/ERC1155Burnable.sol\";\r\n\r\n/// @custom:security-contact coups@climateguardians.io\r\ncontract ClimateHeroV2 is ERC1155, Ownable, Pausable, ERC1155Burnable {\r\n\r\n    uint256 public constant CURUPIRA = 0;\r\n    uint256 public constant NAIARA = 1;\r\n    uint256 public constant BOLSO = 2;\r\n    uint256 public constant CO2 = 3;\r\n\r\n    constructor() ERC1155(\"https://occazwotq257.usemoralis.com/{id}.json\") {\r\n      _mint(msg.sender, CURUPIRA, 1, \"\");\r\n      _mint(msg.sender, NAIARA, 2, \"\");\r\n      _mint(msg.sender, BOLSO, 3, \"\");\r\n      _mint(msg.sender, CO2, 10**9, \"\");\r\n    }\r\n\r\n    function setURI(string memory newuri) public onlyOwner {\r\n        _setURI(newuri);\r\n    }\r\n\r\n    function pause() public onlyOwner {\r\n        _pause();\r\n    }\r\n\r\n    function unpause() public onlyOwner {\r\n        _unpause();\r\n    }\r\n\r\n    function mint(address account, uint256 id, uint256 amount)\r\n        public\r\n        payable\r\n    {\r\n        require(msg.value == 0.1 ether, 'Need to send 0.1 ETH');\r\n        _mint(account, id, amount, \"\");\r\n    }\r\n\r\n    function _beforeTokenTransfer(address operator, address from, address to, uint256[] memory ids, uint256[] memory amounts, bytes memory data)\r\n        internal\r\n        whenNotPaused\r\n        override\r\n    {\r\n        super._beforeTokenTransfer(operator, from, to, ids, amounts, data);\r\n    }\r\n}",
  "sourcePath": "C:\\Users\\racou\\source\\Moralis\\Hackathon\\ethereum-boilerplate\\Truffle\\contracts\\ClimateHeroV2.sol",
  "compiler": {
    "name": "solc",
    "version": "0.8.2+commit.661d1103.Emscripten.clang"
  },
  "schemaVersion": "3.4.3",
  "updatedAt": "2022-01-22T20:40:11.215Z",
  "devdoc": {
    "custom:security-contact": "coups@climateguardians.io",
    "kind": "dev",
    "methods": {
      "balanceOf(address,uint256)": {
        "details": "See {IERC1155-balanceOf}. Requirements: - `account` cannot be the zero address."
      },
      "balanceOfBatch(address[],uint256[])": {
        "details": "See {IERC1155-balanceOfBatch}. Requirements: - `accounts` and `ids` must have the same length."
      },
      "isApprovedForAll(address,address)": {
        "details": "See {IERC1155-isApprovedForAll}."
      },
      "owner()": {
        "details": "Returns the address of the current owner."
      },
      "paused()": {
        "details": "Returns true if the contract is paused, and false otherwise."
      },
      "renounceOwnership()": {
        "details": "Leaves the contract without owner. It will not be possible to call `onlyOwner` functions anymore. Can only be called by the current owner. NOTE: Renouncing ownership will leave the contract without an owner, thereby removing any functionality that is only available to the owner."
      },
      "safeBatchTransferFrom(address,address,uint256[],uint256[],bytes)": {
        "details": "See {IERC1155-safeBatchTransferFrom}."
      },
      "safeTransferFrom(address,address,uint256,uint256,bytes)": {
        "details": "See {IERC1155-safeTransferFrom}."
      },
      "setApprovalForAll(address,bool)": {
        "details": "See {IERC1155-setApprovalForAll}."
      },
      "supportsInterface(bytes4)": {
        "details": "See {IERC165-supportsInterface}."
      },
      "transferOwnership(address)": {
        "details": "Transfers ownership of the contract to a new account (`newOwner`). Can only be called by the current owner."
      },
      "uri(uint256)": {
        "details": "See {IERC1155MetadataURI-uri}. This implementation returns the same URI for *all* token types. It relies on the token type ID substitution mechanism https://eips.ethereum.org/EIPS/eip-1155#metadata[defined in the EIP]. Clients calling this function must replace the `\\{id\\}` substring with the actual token type ID."
      }
    },
    "version": 1
  },
  "userdoc": {
    "kind": "user",
    "methods": {},
    "version": 1
  }
}