{
  "contractName": "Helloworld",
  "abi": [
    {
      "inputs": [
        {
          "internalType": "string",
          "name": "_message",
          "type": "string"
        }
      ],
      "stateMutability": "nonpayable",
      "type": "constructor"
    },
    {
      "inputs": [],
      "name": "message",
      "outputs": [
        {
          "internalType": "string",
          "name": "",
          "type": "string"
        }
      ],
      "stateMutability": "view",
      "type": "function"
    },
    {
      "inputs": [],
      "name": "hello",
      "outputs": [
        {
          "internalType": "string",
          "name": "",
          "type": "string"
        }
      ],
      "stateMutability": "view",
      "type": "function"
    },
    {
      "inputs": [
        {
          "internalType": "string",
          "name": "_message",
          "type": "string"
        }
      ],
      "name": "setMessage",
      "outputs": [],
      "stateMutability": "payable",
      "type": "function"
    }
  ],
  "bytecode": "0x60806040523480156200001157600080fd5b5060405162000971380380620009718339818101604052810190620000379190620002e5565b80600090805190602001906200004f92919062000098565b5033600160006101000a81548173ffffffffffffffffffffffffffffffffffffffff021916908373ffffffffffffffffffffffffffffffffffffffff160217905550506200039b565b828054620000a69062000365565b90600052602060002090601f016020900481019282620000ca576000855562000116565b82601f10620000e557805160ff191683800117855562000116565b8280016001018555821562000116579182015b8281111562000115578251825591602001919060010190620000f8565b5b50905062000125919062000129565b5090565b5b80821115620001445760008160009055506001016200012a565b5090565b6000604051905090565b600080fd5b600080fd5b600080fd5b600080fd5b6000601f19601f8301169050919050565b7f4e487b7100000000000000000000000000000000000000000000000000000000600052604160045260246000fd5b620001b18262000166565b810181811067ffffffffffffffff82111715620001d357620001d262000177565b5b80604052505050565b6000620001e862000148565b9050620001f68282620001a6565b919050565b600067ffffffffffffffff82111562000219576200021862000177565b5b620002248262000166565b9050602081019050919050565b60005b838110156200025157808201518184015260208101905062000234565b8381111562000261576000848401525b50505050565b60006200027e6200027884620001fb565b620001dc565b9050828152602081018484840111156200029d576200029c62000161565b5b620002aa84828562000231565b509392505050565b600082601f830112620002ca57620002c96200015c565b5b8151620002dc84826020860162000267565b91505092915050565b600060208284031215620002fe57620002fd62000152565b5b600082015167ffffffffffffffff8111156200031f576200031e62000157565b5b6200032d84828501620002b2565b91505092915050565b7f4e487b7100000000000000000000000000000000000000000000000000000000600052602260045260246000fd5b600060028204905060018216806200037e57607f821691505b6020821081141562000395576200039462000336565b5b50919050565b6105c680620003ab6000396000f3fe6080604052600436106100345760003560e01c806319ff1d2114610039578063368b877214610064578063e21f37ce14610080575b600080fd5b34801561004557600080fd5b5061004e6100ab565b60405161005b919061037b565b60405180910390f35b61007e600480360381019061007991906104e6565b61013d565b005b34801561008c57600080fd5b506100956101b1565b6040516100a2919061037b565b60405180910390f35b6060600080546100ba9061055e565b80601f01602080910402602001604051908101604052809291908181526020018280546100e69061055e565b80156101335780601f1061010857610100808354040283529160200191610133565b820191906000526020600020905b81548152906001019060200180831161011657829003601f168201915b5050505050905090565b600160009054906101000a900473ffffffffffffffffffffffffffffffffffffffff1673ffffffffffffffffffffffffffffffffffffffff163373ffffffffffffffffffffffffffffffffffffffff161461019757600080fd5b80600090805190602001906101ad92919061023f565b5050565b600080546101be9061055e565b80601f01602080910402602001604051908101604052809291908181526020018280546101ea9061055e565b80156102375780601f1061020c57610100808354040283529160200191610237565b820191906000526020600020905b81548152906001019060200180831161021a57829003601f168201915b505050505081565b82805461024b9061055e565b90600052602060002090601f01602090048101928261026d57600085556102b4565b82601f1061028657805160ff19168380011785556102b4565b828001600101855582156102b4579182015b828111156102b3578251825591602001919060010190610298565b5b5090506102c191906102c5565b5090565b5b808211156102de5760008160009055506001016102c6565b5090565b600081519050919050565b600082825260208201905092915050565b60005b8381101561031c578082015181840152602081019050610301565b8381111561032b576000848401525b50505050565b6000601f19601f8301169050919050565b600061034d826102e2565b61035781856102ed565b93506103678185602086016102fe565b61037081610331565b840191505092915050565b600060208201905081810360008301526103958184610342565b905092915050565b6000604051905090565b600080fd5b600080fd5b600080fd5b600080fd5b7f4e487b7100000000000000000000000000000000000000000000000000000000600052604160045260246000fd5b6103f382610331565b810181811067ffffffffffffffff82111715610412576104116103bb565b5b80604052505050565b600061042561039d565b905061043182826103ea565b919050565b600067ffffffffffffffff821115610451576104506103bb565b5b61045a82610331565b9050602081019050919050565b82818337600083830152505050565b600061048961048484610436565b61041b565b9050828152602081018484840111156104a5576104a46103b6565b5b6104b0848285610467565b509392505050565b600082601f8301126104cd576104cc6103b1565b5b81356104dd848260208601610476565b91505092915050565b6000602082840312156104fc576104fb6103a7565b5b600082013567ffffffffffffffff81111561051a576105196103ac565b5b610526848285016104b8565b91505092915050565b7f4e487b7100000000000000000000000000000000000000000000000000000000600052602260045260246000fd5b6000600282049050600182168061057657607f821691505b6020821081141561058a5761058961052f565b5b5091905056fea2646970667358221220365198ddfb2f9769304ebcdea03d4f2fb3af8b1633f1d70d034b590e0772b5c764736f6c634300080b0033",
  "immutableReferences": {},
  "source": "// SPDX-License-Identifier: MIT\r\npragma solidity 0.8.11;\r\n\r\ncontract Helloworld {\r\n\r\n  string public message;\r\n  address owner;\r\n\r\n  constructor(string memory _message){\r\n    message = _message;\r\n    owner = msg.sender;\r\n  }\r\n\r\n  function hello() public view returns (string memory) {\r\n    return message;\r\n  }\r\n\r\n  function setMessage(string memory _message) public payable {\r\n    require(msg.sender == owner);\r\n    message = _message;\r\n  }\r\n}",
  "sourcePath": "C:\\Users\\racou\\source\\Moralis\\Hackathon\\ethereum-boilerplate\\Truffle\\contracts\\Helloworld.sol",
  "compiler": {
    "name": "solc",
    "version": "0.8.11+commit.d7f03943.Emscripten.clang"
  },
  "schemaVersion": "3.4.3",
  "updatedAt": "2022-01-05T15:44:22.777Z",
  "devdoc": {
    "kind": "dev",
    "methods": {},
    "version": 1
  },
  "userdoc": {
    "kind": "user",
    "methods": {},
    "version": 1
  }
}