{
  "contractName": "ClimateHeroV4",
  "abi": [
    {
      "inputs": [],
      "stateMutability": "nonpayable",
      "type": "constructor"
    },
    {
      "anonymous": false,
      "inputs": [
        {
          "indexed": true,
          "internalType": "address",
          "name": "account",
          "type": "address"
        },
        {
          "indexed": true,
          "internalType": "address",
          "name": "operator",
          "type": "address"
        },
        {
          "indexed": false,
          "internalType": "bool",
          "name": "approved",
          "type": "bool"
        }
      ],
      "name": "ApprovalForAll",
      "type": "event"
    },
    {
      "anonymous": false,
      "inputs": [
        {
          "indexed": true,
          "internalType": "address",
          "name": "previousOwner",
          "type": "address"
        },
        {
          "indexed": true,
          "internalType": "address",
          "name": "newOwner",
          "type": "address"
        }
      ],
      "name": "OwnershipTransferred",
      "type": "event"
    },
    {
      "anonymous": false,
      "inputs": [
        {
          "indexed": false,
          "internalType": "address",
          "name": "account",
          "type": "address"
        }
      ],
      "name": "Paused",
      "type": "event"
    },
    {
      "anonymous": false,
      "inputs": [
        {
          "indexed": true,
          "internalType": "address",
          "name": "operator",
          "type": "address"
        },
        {
          "indexed": true,
          "internalType": "address",
          "name": "from",
          "type": "address"
        },
        {
          "indexed": true,
          "internalType": "address",
          "name": "to",
          "type": "address"
        },
        {
          "indexed": false,
          "internalType": "uint256[]",
          "name": "ids",
          "type": "uint256[]"
        },
        {
          "indexed": false,
          "internalType": "uint256[]",
          "name": "values",
          "type": "uint256[]"
        }
      ],
      "name": "TransferBatch",
      "type": "event"
    },
    {
      "anonymous": false,
      "inputs": [
        {
          "indexed": true,
          "internalType": "address",
          "name": "operator",
          "type": "address"
        },
        {
          "indexed": true,
          "internalType": "address",
          "name": "from",
          "type": "address"
        },
        {
          "indexed": true,
          "internalType": "address",
          "name": "to",
          "type": "address"
        },
        {
          "indexed": false,
          "internalType": "uint256",
          "name": "id",
          "type": "uint256"
        },
        {
          "indexed": false,
          "internalType": "uint256",
          "name": "value",
          "type": "uint256"
        }
      ],
      "name": "TransferSingle",
      "type": "event"
    },
    {
      "anonymous": false,
      "inputs": [
        {
          "indexed": false,
          "internalType": "string",
          "name": "value",
          "type": "string"
        },
        {
          "indexed": true,
          "internalType": "uint256",
          "name": "id",
          "type": "uint256"
        }
      ],
      "name": "URI",
      "type": "event"
    },
    {
      "anonymous": false,
      "inputs": [
        {
          "indexed": false,
          "internalType": "address",
          "name": "account",
          "type": "address"
        }
      ],
      "name": "Unpaused",
      "type": "event"
    },
    {
      "inputs": [],
      "name": "BOLSO",
      "outputs": [
        {
          "internalType": "uint256",
          "name": "",
          "type": "uint256"
        }
      ],
      "stateMutability": "view",
      "type": "function",
      "constant": true
    },
    {
      "inputs": [],
      "name": "CURUPIRA",
      "outputs": [
        {
          "internalType": "uint256",
          "name": "",
          "type": "uint256"
        }
      ],
      "stateMutability": "view",
      "type": "function",
      "constant": true
    },
    {
      "inputs": [],
      "name": "NAIARA",
      "outputs": [
        {
          "internalType": "uint256",
          "name": "",
          "type": "uint256"
        }
      ],
      "stateMutability": "view",
      "type": "function",
      "constant": true
    },
    {
      "inputs": [
        {
          "internalType": "address",
          "name": "account",
          "type": "address"
        },
        {
          "internalType": "uint256",
          "name": "id",
          "type": "uint256"
        }
      ],
      "name": "balanceOf",
      "outputs": [
        {
          "internalType": "uint256",
          "name": "",
          "type": "uint256"
        }
      ],
      "stateMutability": "view",
      "type": "function",
      "constant": true
    },
    {
      "inputs": [
        {
          "internalType": "address[]",
          "name": "accounts",
          "type": "address[]"
        },
        {
          "internalType": "uint256[]",
          "name": "ids",
          "type": "uint256[]"
        }
      ],
      "name": "balanceOfBatch",
      "outputs": [
        {
          "internalType": "uint256[]",
          "name": "",
          "type": "uint256[]"
        }
      ],
      "stateMutability": "view",
      "type": "function",
      "constant": true
    },
    {
      "inputs": [
        {
          "internalType": "address",
          "name": "account",
          "type": "address"
        },
        {
          "internalType": "uint256",
          "name": "id",
          "type": "uint256"
        },
        {
          "internalType": "uint256",
          "name": "value",
          "type": "uint256"
        }
      ],
      "name": "burn",
      "outputs": [],
      "stateMutability": "nonpayable",
      "type": "function"
    },
    {
      "inputs": [
        {
          "internalType": "address",
          "name": "account",
          "type": "address"
        },
        {
          "internalType": "uint256[]",
          "name": "ids",
          "type": "uint256[]"
        },
        {
          "internalType": "uint256[]",
          "name": "values",
          "type": "uint256[]"
        }
      ],
      "name": "burnBatch",
      "outputs": [],
      "stateMutability": "nonpayable",
      "type": "function"
    },
    {
      "inputs": [
        {
          "internalType": "address",
          "name": "account",
          "type": "address"
        },
        {
          "internalType": "address",
          "name": "operator",
          "type": "address"
        }
      ],
      "name": "isApprovedForAll",
      "outputs": [
        {
          "internalType": "bool",
          "name": "",
          "type": "bool"
        }
      ],
      "stateMutability": "view",
      "type": "function",
      "constant": true
    },
    {
      "inputs": [],
      "name": "owner",
      "outputs": [
        {
          "internalType": "address",
          "name": "",
          "type": "address"
        }
      ],
      "stateMutability": "view",
      "type": "function",
      "constant": true
    },
    {
      "inputs": [],
      "name": "paused",
      "outputs": [
        {
          "internalType": "bool",
          "name": "",
          "type": "bool"
        }
      ],
      "stateMutability": "view",
      "type": "function",
      "constant": true
    },
    {
      "inputs": [],
      "name": "renounceOwnership",
      "outputs": [],
      "stateMutability": "nonpayable",
      "type": "function"
    },
    {
      "inputs": [
        {
          "internalType": "address",
          "name": "from",
          "type": "address"
        },
        {
          "internalType": "address",
          "name": "to",
          "type": "address"
        },
        {
          "internalType": "uint256[]",
          "name": "ids",
          "type": "uint256[]"
        },
        {
          "internalType": "uint256[]",
          "name": "amounts",
          "type": "uint256[]"
        },
        {
          "internalType": "bytes",
          "name": "data",
          "type": "bytes"
        }
      ],
      "name": "safeBatchTransferFrom",
      "outputs": [],
      "stateMutability": "nonpayable",
      "type": "function"
    },
    {
      "inputs": [
        {
          "internalType": "address",
          "name": "from",
          "type": "address"
        },
        {
          "internalType": "address",
          "name": "to",
          "type": "address"
        },
        {
          "internalType": "uint256",
          "name": "id",
          "type": "uint256"
        },
        {
          "internalType": "uint256",
          "name": "amount",
          "type": "uint256"
        },
        {
          "internalType": "bytes",
          "name": "data",
          "type": "bytes"
        }
      ],
      "name": "safeTransferFrom",
      "outputs": [],
      "stateMutability": "nonpayable",
      "type": "function"
    },
    {
      "inputs": [
        {
          "internalType": "address",
          "name": "operator",
          "type": "address"
        },
        {
          "internalType": "bool",
          "name": "approved",
          "type": "bool"
        }
      ],
      "name": "setApprovalForAll",
      "outputs": [],
      "stateMutability": "nonpayable",
      "type": "function"
    },
    {
      "inputs": [
        {
          "internalType": "bytes4",
          "name": "interfaceId",
          "type": "bytes4"
        }
      ],
      "name": "supportsInterface",
      "outputs": [
        {
          "internalType": "bool",
          "name": "",
          "type": "bool"
        }
      ],
      "stateMutability": "view",
      "type": "function",
      "constant": true
    },
    {
      "inputs": [
        {
          "internalType": "address",
          "name": "newOwner",
          "type": "address"
        }
      ],
      "name": "transferOwnership",
      "outputs": [],
      "stateMutability": "nonpayable",
      "type": "function"
    },
    {
      "inputs": [
        {
          "internalType": "uint256",
          "name": "",
          "type": "uint256"
        }
      ],
      "name": "uri",
      "outputs": [
        {
          "internalType": "string",
          "name": "",
          "type": "string"
        }
      ],
      "stateMutability": "view",
      "type": "function",
      "constant": true
    },
    {
      "inputs": [
        {
          "internalType": "string",
          "name": "newuri",
          "type": "string"
        }
      ],
      "name": "setURI",
      "outputs": [],
      "stateMutability": "nonpayable",
      "type": "function"
    },
    {
      "inputs": [],
      "name": "pause",
      "outputs": [],
      "stateMutability": "nonpayable",
      "type": "function"
    },
    {
      "inputs": [],
      "name": "unpause",
      "outputs": [],
      "stateMutability": "nonpayable",
      "type": "function"
    },
    {
      "inputs": [
        {
          "internalType": "uint256",
          "name": "id",
          "type": "uint256"
        },
        {
          "internalType": "uint256",
          "name": "amount",
          "type": "uint256"
        }
      ],
      "name": "mint",
      "outputs": [],
      "stateMutability": "payable",
      "type": "function",
      "payable": true
    }
  ],
  "bytecode": "0x60806040523480156200001157600080fd5b506040518060600160405280602d815260200162004d0a602d91396200003d81620000ee60201b60201c565b506200005e620000526200010a60201b60201c565b6200011260201b60201c565b6000600360146101000a81548160ff0219169083151502179055506200009e336000600160405180602001604052806000815250620001d860201b60201c565b620000c3336001600260405180602001604052806000815250620001d860201b60201c565b620000e8336002600360405180602001604052806000815250620001d860201b60201c565b62000ed5565b80600290805190602001906200010692919062000718565b5050565b600033905090565b6000600360009054906101000a900473ffffffffffffffffffffffffffffffffffffffff16905081600360006101000a81548173ffffffffffffffffffffffffffffffffffffffff021916908373ffffffffffffffffffffffffffffffffffffffff1602179055508173ffffffffffffffffffffffffffffffffffffffff168173ffffffffffffffffffffffffffffffffffffffff167f8be0079c531659141344cd1fd0a4f28419497f9722a3daafe3b4186f6b6457e060405160405180910390a35050565b600073ffffffffffffffffffffffffffffffffffffffff168473ffffffffffffffffffffffffffffffffffffffff1614156200024b576040517f08c379a0000000000000000000000000000000000000000000000000000000008152600401620002429062000a39565b60405180910390fd5b60006200025d6200010a60201b60201c565b9050620002968160008762000278886200039d60201b60201c565b62000289886200039d60201b60201c565b876200046660201b60201c565b8260008086815260200190815260200160002060008773ffffffffffffffffffffffffffffffffffffffff1673ffffffffffffffffffffffffffffffffffffffff1681526020019081526020016000206000828254620002f7919062000aca565b925050819055508473ffffffffffffffffffffffffffffffffffffffff16600073ffffffffffffffffffffffffffffffffffffffff168273ffffffffffffffffffffffffffffffffffffffff167fc3d58168c5ae7397731d063d5bbf3d657854427343f4c083240f7aacaa2d0f6287876040516200037792919062000a5b565b60405180910390a46200039681600087878787620004dc60201b60201c565b5050505050565b60606000600167ffffffffffffffff811115620003e3577f4e487b7100000000000000000000000000000000000000000000000000000000600052604160045260246000fd5b604051908082528060200260200182016040528015620004125781602001602082028036833780820191505090505b509050828160008151811062000451577f4e487b7100000000000000000000000000000000000000000000000000000000600052603260045260246000fd5b60200260200101818152505080915050919050565b62000476620006e660201b60201c565b15620004b9576040517f08c379a0000000000000000000000000000000000000000000000000000000008152600401620004b09062000a17565b60405180910390fd5b620004d4868686868686620006fd60201b62000f991760201c565b505050505050565b620005088473ffffffffffffffffffffffffffffffffffffffff166200070560201b62000fa11760201c565b15620006de578373ffffffffffffffffffffffffffffffffffffffff1663f23a6e6187878686866040518663ffffffff1660e01b8152600401620005519594939291906200094b565b602060405180830381600087803b1580156200056c57600080fd5b505af1925050508015620005a057506040513d601f19601f820116820180604052508101906200059d9190620007df565b60015b6200065257620005af62000cc0565b806308c379a01415620006135750620005c762000e19565b80620005d4575062000615565b806040517f08c379a00000000000000000000000000000000000000000000000000000000081526004016200060a9190620009af565b60405180910390fd5b505b6040517f08c379a00000000000000000000000000000000000000000000000000000000081526004016200064990620009d3565b60405180910390fd5b63f23a6e6160e01b7bffffffffffffffffffffffffffffffffffffffffffffffffffffffff1916817bffffffffffffffffffffffffffffffffffffffffffffffffffffffff191614620006dc576040517f08c379a0000000000000000000000000000000000000000000000000000000008152600401620006d390620009f5565b60405180910390fd5b505b505050505050565b6000600360149054906101000a900460ff16905090565b505050505050565b600080823b905060008111915050919050565b828054620007269062000bc7565b90600052602060002090601f0160209004810192826200074a576000855562000796565b82601f106200076557805160ff191683800117855562000796565b8280016001018555821562000796579182015b828111156200079557825182559160200191906001019062000778565b5b509050620007a59190620007a9565b5090565b5b80821115620007c4576000816000905550600101620007aa565b5090565b600081519050620007d98162000ebb565b92915050565b600060208284031215620007f257600080fd5b60006200080284828501620007c8565b91505092915050565b620008168162000b27565b82525050565b6000620008298262000a92565b62000835818562000aa8565b93506200084781856020860162000b91565b620008528162000ce5565b840191505092915050565b60006200086a8262000a9d565b62000876818562000ab9565b93506200088881856020860162000b91565b620008938162000ce5565b840191505092915050565b6000620008ad60348362000ab9565b9150620008ba8262000d03565b604082019050919050565b6000620008d460288362000ab9565b9150620008e18262000d52565b604082019050919050565b6000620008fb60108362000ab9565b9150620009088262000da1565b602082019050919050565b60006200092260218362000ab9565b91506200092f8262000dca565b604082019050919050565b620009458162000b87565b82525050565b600060a0820190506200096260008301886200080b565b6200097160208301876200080b565b6200098060408301866200093a565b6200098f60608301856200093a565b8181036080830152620009a381846200081c565b90509695505050505050565b60006020820190508181036000830152620009cb81846200085d565b905092915050565b60006020820190508181036000830152620009ee816200089e565b9050919050565b6000602082019050818103600083015262000a1081620008c5565b9050919050565b6000602082019050818103600083015262000a3281620008ec565b9050919050565b6000602082019050818103600083015262000a548162000913565b9050919050565b600060408201905062000a7260008301856200093a565b62000a8160208301846200093a565b9392505050565b6000604051905090565b600081519050919050565b600081519050919050565b600082825260208201905092915050565b600082825260208201905092915050565b600062000ad78262000b87565b915062000ae48362000b87565b9250827fffffffffffffffffffffffffffffffffffffffffffffffffffffffffffffffff0382111562000b1c5762000b1b62000c33565b5b828201905092915050565b600062000b348262000b67565b9050919050565b60007fffffffff0000000000000000000000000000000000000000000000000000000082169050919050565b600073ffffffffffffffffffffffffffffffffffffffff82169050919050565b6000819050919050565b60005b8381101562000bb157808201518184015260208101905062000b94565b8381111562000bc1576000848401525b50505050565b6000600282049050600182168062000be057607f821691505b6020821081141562000bf75762000bf662000c62565b5b50919050565b62000c088262000ce5565b810181811067ffffffffffffffff8211171562000c2a5762000c2962000c91565b5b80604052505050565b7f4e487b7100000000000000000000000000000000000000000000000000000000600052601160045260246000fd5b7f4e487b7100000000000000000000000000000000000000000000000000000000600052602260045260246000fd5b7f4e487b7100000000000000000000000000000000000000000000000000000000600052604160045260246000fd5b600060033d111562000ce25760046000803e62000cdf60005162000cf6565b90505b90565b6000601f19601f8301169050919050565b60008160e01c9050919050565b7f455243313135353a207472616e7366657220746f206e6f6e204552433131353560008201527f526563656976657220696d706c656d656e746572000000000000000000000000602082015250565b7f455243313135353a204552433131353552656365697665722072656a6563746560008201527f6420746f6b656e73000000000000000000000000000000000000000000000000602082015250565b7f5061757361626c653a2070617573656400000000000000000000000000000000600082015250565b7f455243313135353a206d696e7420746f20746865207a65726f2061646472657360008201527f7300000000000000000000000000000000000000000000000000000000000000602082015250565b600060443d101562000e2b5762000eb8565b62000e3562000a88565b60043d036004823e80513d602482011167ffffffffffffffff8211171562000e5f57505062000eb8565b808201805167ffffffffffffffff81111562000e7f575050505062000eb8565b80602083010160043d03850181111562000e9e57505050505062000eb8565b62000eaf8260200185018662000bfd565b82955050505050505b90565b62000ec68162000b3b565b811462000ed257600080fd5b50565b613e258062000ee56000396000f3fe6080604052600436106101295760003560e01c80636c7880be116100ab578063a22cb4651161006f578063a22cb465146103aa578063a45108ac146103d3578063e985e9c5146103fe578063f242432a1461043b578063f2fde38b14610464578063f5298aca1461048d57610129565b80636c7880be146102fb5780636d0cc83314610326578063715018a6146103515780638456cb59146103685780638da5cb5b1461037f57610129565b80632eb2c2d6116100f25780632eb2c2d61461022a5780633f4ba83a146102535780634e1273f41461026a5780635c975abb146102a75780636b20c454146102d257610129565b8062fdd58e1461012e57806301ffc9a71461016b57806302fe5305146101a85780630e89341c146101d15780631b2ef1ca1461020e575b600080fd5b34801561013a57600080fd5b5061015560048036038101906101509190612ab2565b6104b6565b60405161016291906133ee565b60405180910390f35b34801561017757600080fd5b50610192600480360381019061018d9190612ba9565b61057f565b60405161019f9190613171565b60405180910390f35b3480156101b457600080fd5b506101cf60048036038101906101ca9190612bfb565b610661565b005b3480156101dd57600080fd5b506101f860048036038101906101f39190612c3c565b6106e9565b604051610205919061318c565b60405180910390f35b61022860048036038101906102239190612c65565b61077d565b005b34801561023657600080fd5b50610251600480360381019061024c91906128a9565b6107e6565b005b34801561025f57600080fd5b50610268610887565b005b34801561027657600080fd5b50610291600480360381019061028c9190612b3d565b61090d565b60405161029e9190613118565b60405180910390f35b3480156102b357600080fd5b506102bc610abe565b6040516102c99190613171565b60405180910390f35b3480156102de57600080fd5b506102f960048036038101906102f491906129f7565b610ad5565b005b34801561030757600080fd5b50610310610b72565b60405161031d91906133ee565b60405180910390f35b34801561033257600080fd5b5061033b610b77565b60405161034891906133ee565b60405180910390f35b34801561035d57600080fd5b50610366610b7c565b005b34801561037457600080fd5b5061037d610c04565b005b34801561038b57600080fd5b50610394610c8a565b6040516103a1919061303b565b60405180910390f35b3480156103b657600080fd5b506103d160048036038101906103cc9190612a76565b610cb4565b005b3480156103df57600080fd5b506103e8610cca565b6040516103f591906133ee565b60405180910390f35b34801561040a57600080fd5b506104256004803603810190610420919061286d565b610ccf565b6040516104329190613171565b60405180910390f35b34801561044757600080fd5b50610462600480360381019061045d9190612968565b610d63565b005b34801561047057600080fd5b5061048b60048036038101906104869190612844565b610e04565b005b34801561049957600080fd5b506104b460048036038101906104af9190612aee565b610efc565b005b60008073ffffffffffffffffffffffffffffffffffffffff168373ffffffffffffffffffffffffffffffffffffffff161415610527576040517f08c379a000000000000000000000000000000000000000000000000000000000815260040161051e9061320e565b60405180910390fd5b60008083815260200190815260200160002060008473ffffffffffffffffffffffffffffffffffffffff1673ffffffffffffffffffffffffffffffffffffffff16815260200190815260200160002054905092915050565b60007fd9b67a26000000000000000000000000000000000000000000000000000000007bffffffffffffffffffffffffffffffffffffffffffffffffffffffff1916827bffffffffffffffffffffffffffffffffffffffffffffffffffffffff1916148061064a57507f0e89341c000000000000000000000000000000000000000000000000000000007bffffffffffffffffffffffffffffffffffffffffffffffffffffffff1916827bffffffffffffffffffffffffffffffffffffffffffffffffffffffff1916145b8061065a575061065982610fb4565b5b9050919050565b61066961101e565b73ffffffffffffffffffffffffffffffffffffffff16610687610c8a565b73ffffffffffffffffffffffffffffffffffffffff16146106dd576040517f08c379a00000000000000000000000000000000000000000000000000000000081526004016106d49061332e565b60405180910390fd5b6106e681611026565b50565b6060600280546106f89061368e565b80601f01602080910402602001604051908101604052809291908181526020018280546107249061368e565b80156107715780601f1061074657610100808354040283529160200191610771565b820191906000526020600020905b81548152906001019060200180831161075457829003601f168201915b50505050509050919050565b67016345785d8a000034146107c7576040517f08c379a00000000000000000000000000000000000000000000000000000000081526004016107be9061334e565b60405180910390fd5b6107e233838360405180602001604052806000815250611040565b5050565b6107ee61101e565b73ffffffffffffffffffffffffffffffffffffffff168573ffffffffffffffffffffffffffffffffffffffff16148061083457506108338561082e61101e565b610ccf565b5b610873576040517f08c379a000000000000000000000000000000000000000000000000000000000815260040161086a906132ce565b60405180910390fd5b61088085858585856111d6565b5050505050565b61088f61101e565b73ffffffffffffffffffffffffffffffffffffffff166108ad610c8a565b73ffffffffffffffffffffffffffffffffffffffff1614610903576040517f08c379a00000000000000000000000000000000000000000000000000000000081526004016108fa9061332e565b60405180910390fd5b61090b611536565b565b60608151835114610953576040517f08c379a000000000000000000000000000000000000000000000000000000000815260040161094a9061338e565b60405180910390fd5b6000835167ffffffffffffffff811115610996577f4e487b7100000000000000000000000000000000000000000000000000000000600052604160045260246000fd5b6040519080825280602002602001820160405280156109c45781602001602082028036833780820191505090505b50905060005b8451811015610ab357610a5d858281518110610a0f577f4e487b7100000000000000000000000000000000000000000000000000000000600052603260045260246000fd5b6020026020010151858381518110610a50577f4e487b7100000000000000000000000000000000000000000000000000000000600052603260045260246000fd5b60200260200101516104b6565b828281518110610a96577f4e487b7100000000000000000000000000000000000000000000000000000000600052603260045260246000fd5b60200260200101818152505080610aac906136f1565b90506109ca565b508091505092915050565b6000600360149054906101000a900460ff16905090565b610add61101e565b73ffffffffffffffffffffffffffffffffffffffff168373ffffffffffffffffffffffffffffffffffffffff161480610b235750610b2283610b1d61101e565b610ccf565b5b610b62576040517f08c379a0000000000000000000000000000000000000000000000000000000008152600401610b599061326e565b60405180910390fd5b610b6d8383836115d8565b505050565b600081565b600181565b610b8461101e565b73ffffffffffffffffffffffffffffffffffffffff16610ba2610c8a565b73ffffffffffffffffffffffffffffffffffffffff1614610bf8576040517f08c379a0000000000000000000000000000000000000000000000000000000008152600401610bef9061332e565b60405180910390fd5b610c0260006118d5565b565b610c0c61101e565b73ffffffffffffffffffffffffffffffffffffffff16610c2a610c8a565b73ffffffffffffffffffffffffffffffffffffffff1614610c80576040517f08c379a0000000000000000000000000000000000000000000000000000000008152600401610c779061332e565b60405180910390fd5b610c8861199b565b565b6000600360009054906101000a900473ffffffffffffffffffffffffffffffffffffffff16905090565b610cc6610cbf61101e565b8383611a3e565b5050565b600281565b6000600160008473ffffffffffffffffffffffffffffffffffffffff1673ffffffffffffffffffffffffffffffffffffffff16815260200190815260200160002060008373ffffffffffffffffffffffffffffffffffffffff1673ffffffffffffffffffffffffffffffffffffffff16815260200190815260200160002060009054906101000a900460ff16905092915050565b610d6b61101e565b73ffffffffffffffffffffffffffffffffffffffff168573ffffffffffffffffffffffffffffffffffffffff161480610db15750610db085610dab61101e565b610ccf565b5b610df0576040517f08c379a0000000000000000000000000000000000000000000000000000000008152600401610de79061326e565b60405180910390fd5b610dfd8585858585611bab565b5050505050565b610e0c61101e565b73ffffffffffffffffffffffffffffffffffffffff16610e2a610c8a565b73ffffffffffffffffffffffffffffffffffffffff1614610e80576040517f08c379a0000000000000000000000000000000000000000000000000000000008152600401610e779061332e565b60405180910390fd5b600073ffffffffffffffffffffffffffffffffffffffff168173ffffffffffffffffffffffffffffffffffffffff161415610ef0576040517f08c379a0000000000000000000000000000000000000000000000000000000008152600401610ee79061322e565b60405180910390fd5b610ef9816118d5565b50565b610f0461101e565b73ffffffffffffffffffffffffffffffffffffffff168373ffffffffffffffffffffffffffffffffffffffff161480610f4a5750610f4983610f4461101e565b610ccf565b5b610f89576040517f08c379a0000000000000000000000000000000000000000000000000000000008152600401610f809061326e565b60405180910390fd5b610f94838383611e2d565b505050565b505050505050565b600080823b905060008111915050919050565b60007f01ffc9a7000000000000000000000000000000000000000000000000000000007bffffffffffffffffffffffffffffffffffffffffffffffffffffffff1916827bffffffffffffffffffffffffffffffffffffffffffffffffffffffff1916149050919050565b600033905090565b806002908051906020019061103c92919061253c565b5050565b600073ffffffffffffffffffffffffffffffffffffffff168473ffffffffffffffffffffffffffffffffffffffff1614156110b0576040517f08c379a00000000000000000000000000000000000000000000000000000000081526004016110a7906133ce565b60405180910390fd5b60006110ba61101e565b90506110db816000876110cc8861204a565b6110d58861204a565b87612110565b8260008086815260200190815260200160002060008773ffffffffffffffffffffffffffffffffffffffff1673ffffffffffffffffffffffffffffffffffffffff168152602001908152602001600020600082825461113a9190613582565b925050819055508473ffffffffffffffffffffffffffffffffffffffff16600073ffffffffffffffffffffffffffffffffffffffff168273ffffffffffffffffffffffffffffffffffffffff167fc3d58168c5ae7397731d063d5bbf3d657854427343f4c083240f7aacaa2d0f6287876040516111b8929190613409565b60405180910390a46111cf8160008787878761216e565b5050505050565b815183511461121a576040517f08c379a0000000000000000000000000000000000000000000000000000000008152600401611211906133ae565b60405180910390fd5b600073ffffffffffffffffffffffffffffffffffffffff168473ffffffffffffffffffffffffffffffffffffffff16141561128a576040517f08c379a0000000000000000000000000000000000000000000000000000000008152600401611281906132ae565b60405180910390fd5b600061129461101e565b90506112a4818787878787612110565b60005b84518110156114a15760008582815181106112eb577f4e487b7100000000000000000000000000000000000000000000000000000000600052603260045260246000fd5b602002602001015190506000858381518110611330577f4e487b7100000000000000000000000000000000000000000000000000000000600052603260045260246000fd5b60200260200101519050600080600084815260200190815260200160002060008b73ffffffffffffffffffffffffffffffffffffffff1673ffffffffffffffffffffffffffffffffffffffff168152602001908152602001600020549050818110156113d1576040517f08c379a00000000000000000000000000000000000000000000000000000000081526004016113c89061330e565b60405180910390fd5b81810360008085815260200190815260200160002060008c73ffffffffffffffffffffffffffffffffffffffff1673ffffffffffffffffffffffffffffffffffffffff168152602001908152602001600020819055508160008085815260200190815260200160002060008b73ffffffffffffffffffffffffffffffffffffffff1673ffffffffffffffffffffffffffffffffffffffff16815260200190815260200160002060008282546114869190613582565b925050819055505050508061149a906136f1565b90506112a7565b508473ffffffffffffffffffffffffffffffffffffffff168673ffffffffffffffffffffffffffffffffffffffff168273ffffffffffffffffffffffffffffffffffffffff167f4a39dc06d4c0dbc64b70af90fd698a233a518aa5d07e595d983b8c0526c8f7fb878760405161151892919061313a565b60405180910390a461152e818787878787612355565b505050505050565b61153e610abe565b61157d576040517f08c379a0000000000000000000000000000000000000000000000000000000008152600401611574906131ee565b60405180910390fd5b6000600360146101000a81548160ff0219169083151502179055507f5db9ee0a495bf2e6ff9c91a7834c1ba4fdd244a5e8aa4e537bd38aeae4b073aa6115c161101e565b6040516115ce919061303b565b60405180910390a1565b600073ffffffffffffffffffffffffffffffffffffffff168373ffffffffffffffffffffffffffffffffffffffff161415611648576040517f08c379a000000000000000000000000000000000000000000000000000000000815260040161163f906132ee565b60405180910390fd5b805182511461168c576040517f08c379a0000000000000000000000000000000000000000000000000000000008152600401611683906133ae565b60405180910390fd5b600061169661101e565b90506116b681856000868660405180602001604052806000815250612110565b60005b835181101561184f5760008482815181106116fd577f4e487b7100000000000000000000000000000000000000000000000000000000600052603260045260246000fd5b602002602001015190506000848381518110611742577f4e487b7100000000000000000000000000000000000000000000000000000000600052603260045260246000fd5b60200260200101519050600080600084815260200190815260200160002060008973ffffffffffffffffffffffffffffffffffffffff1673ffffffffffffffffffffffffffffffffffffffff168152602001908152602001600020549050818110156117e3576040517f08c379a00000000000000000000000000000000000000000000000000000000081526004016117da9061324e565b60405180910390fd5b81810360008085815260200190815260200160002060008a73ffffffffffffffffffffffffffffffffffffffff1673ffffffffffffffffffffffffffffffffffffffff168152602001908152602001600020819055505050508080611847906136f1565b9150506116b9565b50600073ffffffffffffffffffffffffffffffffffffffff168473ffffffffffffffffffffffffffffffffffffffff168273ffffffffffffffffffffffffffffffffffffffff167f4a39dc06d4c0dbc64b70af90fd698a233a518aa5d07e595d983b8c0526c8f7fb86866040516118c792919061313a565b60405180910390a450505050565b6000600360009054906101000a900473ffffffffffffffffffffffffffffffffffffffff16905081600360006101000a81548173ffffffffffffffffffffffffffffffffffffffff021916908373ffffffffffffffffffffffffffffffffffffffff1602179055508173ffffffffffffffffffffffffffffffffffffffff168173ffffffffffffffffffffffffffffffffffffffff167f8be0079c531659141344cd1fd0a4f28419497f9722a3daafe3b4186f6b6457e060405160405180910390a35050565b6119a3610abe565b156119e3576040517f08c379a00000000000000000000000000000000000000000000000000000000081526004016119da9061328e565b60405180910390fd5b6001600360146101000a81548160ff0219169083151502179055507f62e78cea01bee320cd4e420270b5ea74000d11b0c9f74754ebdbfc544b05a258611a2761101e565b604051611a34919061303b565b60405180910390a1565b8173ffffffffffffffffffffffffffffffffffffffff168373ffffffffffffffffffffffffffffffffffffffff161415611aad576040517f08c379a0000000000000000000000000000000000000000000000000000000008152600401611aa49061336e565b60405180910390fd5b80600160008573ffffffffffffffffffffffffffffffffffffffff1673ffffffffffffffffffffffffffffffffffffffff16815260200190815260200160002060008473ffffffffffffffffffffffffffffffffffffffff1673ffffffffffffffffffffffffffffffffffffffff16815260200190815260200160002060006101000a81548160ff0219169083151502179055508173ffffffffffffffffffffffffffffffffffffffff168373ffffffffffffffffffffffffffffffffffffffff167f17307eab39ab6107e8899845ad3d59bd9653f200f220920489ca2b5937696c3183604051611b9e9190613171565b60405180910390a3505050565b600073ffffffffffffffffffffffffffffffffffffffff168473ffffffffffffffffffffffffffffffffffffffff161415611c1b576040517f08c379a0000000000000000000000000000000000000000000000000000000008152600401611c12906132ae565b60405180910390fd5b6000611c2561101e565b9050611c45818787611c368861204a565b611c3f8861204a565b87612110565b600080600086815260200190815260200160002060008873ffffffffffffffffffffffffffffffffffffffff1673ffffffffffffffffffffffffffffffffffffffff16815260200190815260200160002054905083811015611cdc576040517f08c379a0000000000000000000000000000000000000000000000000000000008152600401611cd39061330e565b60405180910390fd5b83810360008087815260200190815260200160002060008973ffffffffffffffffffffffffffffffffffffffff1673ffffffffffffffffffffffffffffffffffffffff168152602001908152602001600020819055508360008087815260200190815260200160002060008873ffffffffffffffffffffffffffffffffffffffff1673ffffffffffffffffffffffffffffffffffffffff1681526020019081526020016000206000828254611d919190613582565b925050819055508573ffffffffffffffffffffffffffffffffffffffff168773ffffffffffffffffffffffffffffffffffffffff168373ffffffffffffffffffffffffffffffffffffffff167fc3d58168c5ae7397731d063d5bbf3d657854427343f4c083240f7aacaa2d0f628888604051611e0e929190613409565b60405180910390a4611e2482888888888861216e565b50505050505050565b600073ffffffffffffffffffffffffffffffffffffffff168373ffffffffffffffffffffffffffffffffffffffff161415611e9d576040517f08c379a0000000000000000000000000000000000000000000000000000000008152600401611e94906132ee565b60405180910390fd5b6000611ea761101e565b9050611ed781856000611eb98761204a565b611ec28761204a565b60405180602001604052806000815250612110565b600080600085815260200190815260200160002060008673ffffffffffffffffffffffffffffffffffffffff1673ffffffffffffffffffffffffffffffffffffffff16815260200190815260200160002054905082811015611f6e576040517f08c379a0000000000000000000000000000000000000000000000000000000008152600401611f659061324e565b60405180910390fd5b82810360008086815260200190815260200160002060008773ffffffffffffffffffffffffffffffffffffffff1673ffffffffffffffffffffffffffffffffffffffff16815260200190815260200160002081905550600073ffffffffffffffffffffffffffffffffffffffff168573ffffffffffffffffffffffffffffffffffffffff168373ffffffffffffffffffffffffffffffffffffffff167fc3d58168c5ae7397731d063d5bbf3d657854427343f4c083240f7aacaa2d0f62878760405161203b929190613409565b60405180910390a45050505050565b60606000600167ffffffffffffffff81111561208f577f4e487b7100000000000000000000000000000000000000000000000000000000600052604160045260246000fd5b6040519080825280602002602001820160405280156120bd5781602001602082028036833780820191505090505b50905082816000815181106120fb577f4e487b7100000000000000000000000000000000000000000000000000000000600052603260045260246000fd5b60200260200101818152505080915050919050565b612118610abe565b15612158576040517f08c379a000000000000000000000000000000000000000000000000000000000815260040161214f9061328e565b60405180910390fd5b612166868686868686610f99565b505050505050565b61218d8473ffffffffffffffffffffffffffffffffffffffff16610fa1565b1561234d578373ffffffffffffffffffffffffffffffffffffffff1663f23a6e6187878686866040518663ffffffff1660e01b81526004016121d39594939291906130be565b602060405180830381600087803b1580156121ed57600080fd5b505af192505050801561221e57506040513d601f19601f8201168201806040525081019061221b9190612bd2565b60015b6122c45761222a6137c7565b806308c379a01415612287575061223f613cfd565b8061224a5750612289565b806040517f08c379a000000000000000000000000000000000000000000000000000000000815260040161227e919061318c565b60405180910390fd5b505b6040517f08c379a00000000000000000000000000000000000000000000000000000000081526004016122bb906131ae565b60405180910390fd5b63f23a6e6160e01b7bffffffffffffffffffffffffffffffffffffffffffffffffffffffff1916817bffffffffffffffffffffffffffffffffffffffffffffffffffffffff19161461234b576040517f08c379a0000000000000000000000000000000000000000000000000000000008152600401612342906131ce565b60405180910390fd5b505b505050505050565b6123748473ffffffffffffffffffffffffffffffffffffffff16610fa1565b15612534578373ffffffffffffffffffffffffffffffffffffffff1663bc197c8187878686866040518663ffffffff1660e01b81526004016123ba959493929190613056565b602060405180830381600087803b1580156123d457600080fd5b505af192505050801561240557506040513d601f19601f820116820180604052508101906124029190612bd2565b60015b6124ab576124116137c7565b806308c379a0141561246e5750612426613cfd565b806124315750612470565b806040517f08c379a0000000000000000000000000000000000000000000000000000000008152600401612465919061318c565b60405180910390fd5b505b6040517f08c379a00000000000000000000000000000000000000000000000000000000081526004016124a2906131ae565b60405180910390fd5b63bc197c8160e01b7bffffffffffffffffffffffffffffffffffffffffffffffffffffffff1916817bffffffffffffffffffffffffffffffffffffffffffffffffffffffff191614612532576040517f08c379a0000000000000000000000000000000000000000000000000000000008152600401612529906131ce565b60405180910390fd5b505b505050505050565b8280546125489061368e565b90600052602060002090601f01602090048101928261256a57600085556125b1565b82601f1061258357805160ff19168380011785556125b1565b828001600101855582156125b1579182015b828111156125b0578251825591602001919060010190612595565b5b5090506125be91906125c2565b5090565b5b808211156125db5760008160009055506001016125c3565b5090565b60006125f26125ed84613457565b613432565b9050808382526020820190508285602086028201111561261157600080fd5b60005b8581101561264157816126278882612733565b845260208401935060208301925050600181019050612614565b5050509392505050565b600061265e61265984613483565b613432565b9050808382526020820190508285602086028201111561267d57600080fd5b60005b858110156126ad5781612693888261282f565b845260208401935060208301925050600181019050612680565b5050509392505050565b60006126ca6126c5846134af565b613432565b9050828152602081018484840111156126e257600080fd5b6126ed84828561364c565b509392505050565b6000612708612703846134e0565b613432565b90508281526020810184848401111561272057600080fd5b61272b84828561364c565b509392505050565b60008135905061274281613d93565b92915050565b600082601f83011261275957600080fd5b81356127698482602086016125df565b91505092915050565b600082601f83011261278357600080fd5b813561279384826020860161264b565b91505092915050565b6000813590506127ab81613daa565b92915050565b6000813590506127c081613dc1565b92915050565b6000815190506127d581613dc1565b92915050565b600082601f8301126127ec57600080fd5b81356127fc8482602086016126b7565b91505092915050565b600082601f83011261281657600080fd5b81356128268482602086016126f5565b91505092915050565b60008135905061283e81613dd8565b92915050565b60006020828403121561285657600080fd5b600061286484828501612733565b91505092915050565b6000806040838503121561288057600080fd5b600061288e85828601612733565b925050602061289f85828601612733565b9150509250929050565b600080600080600060a086880312156128c157600080fd5b60006128cf88828901612733565b95505060206128e088828901612733565b945050604086013567ffffffffffffffff8111156128fd57600080fd5b61290988828901612772565b935050606086013567ffffffffffffffff81111561292657600080fd5b61293288828901612772565b925050608086013567ffffffffffffffff81111561294f57600080fd5b61295b888289016127db565b9150509295509295909350565b600080600080600060a0868803121561298057600080fd5b600061298e88828901612733565b955050602061299f88828901612733565b94505060406129b08882890161282f565b93505060606129c18882890161282f565b925050608086013567ffffffffffffffff8111156129de57600080fd5b6129ea888289016127db565b9150509295509295909350565b600080600060608486031215612a0c57600080fd5b6000612a1a86828701612733565b935050602084013567ffffffffffffffff811115612a3757600080fd5b612a4386828701612772565b925050604084013567ffffffffffffffff811115612a6057600080fd5b612a6c86828701612772565b9150509250925092565b60008060408385031215612a8957600080fd5b6000612a9785828601612733565b9250506020612aa88582860161279c565b9150509250929050565b60008060408385031215612ac557600080fd5b6000612ad385828601612733565b9250506020612ae48582860161282f565b9150509250929050565b600080600060608486031215612b0357600080fd5b6000612b1186828701612733565b9350506020612b228682870161282f565b9250506040612b338682870161282f565b9150509250925092565b60008060408385031215612b5057600080fd5b600083013567ffffffffffffffff811115612b6a57600080fd5b612b7685828601612748565b925050602083013567ffffffffffffffff811115612b9357600080fd5b612b9f85828601612772565b9150509250929050565b600060208284031215612bbb57600080fd5b6000612bc9848285016127b1565b91505092915050565b600060208284031215612be457600080fd5b6000612bf2848285016127c6565b91505092915050565b600060208284031215612c0d57600080fd5b600082013567ffffffffffffffff811115612c2757600080fd5b612c3384828501612805565b91505092915050565b600060208284031215612c4e57600080fd5b6000612c5c8482850161282f565b91505092915050565b60008060408385031215612c7857600080fd5b6000612c868582860161282f565b9250506020612c978582860161282f565b9150509250929050565b6000612cad838361301d565b60208301905092915050565b612cc2816135d8565b82525050565b6000612cd382613521565b612cdd818561354f565b9350612ce883613511565b8060005b83811015612d19578151612d008882612ca1565b9750612d0b83613542565b925050600181019050612cec565b5085935050505092915050565b612d2f816135ea565b82525050565b6000612d408261352c565b612d4a8185613560565b9350612d5a81856020860161365b565b612d63816137e9565b840191505092915050565b6000612d7982613537565b612d838185613571565b9350612d9381856020860161365b565b612d9c816137e9565b840191505092915050565b6000612db4603483613571565b9150612dbf82613807565b604082019050919050565b6000612dd7602883613571565b9150612de282613856565b604082019050919050565b6000612dfa601483613571565b9150612e05826138a5565b602082019050919050565b6000612e1d602b83613571565b9150612e28826138ce565b604082019050919050565b6000612e40602683613571565b9150612e4b8261391d565b604082019050919050565b6000612e63602483613571565b9150612e6e8261396c565b604082019050919050565b6000612e86602983613571565b9150612e91826139bb565b604082019050919050565b6000612ea9601083613571565b9150612eb482613a0a565b602082019050919050565b6000612ecc602583613571565b9150612ed782613a33565b604082019050919050565b6000612eef603283613571565b9150612efa82613a82565b604082019050919050565b6000612f12602383613571565b9150612f1d82613ad1565b604082019050919050565b6000612f35602a83613571565b9150612f4082613b20565b604082019050919050565b6000612f58602083613571565b9150612f6382613b6f565b602082019050919050565b6000612f7b601483613571565b9150612f8682613b98565b602082019050919050565b6000612f9e602983613571565b9150612fa982613bc1565b604082019050919050565b6000612fc1602983613571565b9150612fcc82613c10565b604082019050919050565b6000612fe4602883613571565b9150612fef82613c5f565b604082019050919050565b6000613007602183613571565b915061301282613cae565b604082019050919050565b61302681613642565b82525050565b61303581613642565b82525050565b60006020820190506130506000830184612cb9565b92915050565b600060a08201905061306b6000830188612cb9565b6130786020830187612cb9565b818103604083015261308a8186612cc8565b9050818103606083015261309e8185612cc8565b905081810360808301526130b28184612d35565b90509695505050505050565b600060a0820190506130d36000830188612cb9565b6130e06020830187612cb9565b6130ed604083018661302c565b6130fa606083018561302c565b818103608083015261310c8184612d35565b90509695505050505050565b600060208201905081810360008301526131328184612cc8565b905092915050565b600060408201905081810360008301526131548185612cc8565b905081810360208301526131688184612cc8565b90509392505050565b60006020820190506131866000830184612d26565b92915050565b600060208201905081810360008301526131a68184612d6e565b905092915050565b600060208201905081810360008301526131c781612da7565b9050919050565b600060208201905081810360008301526131e781612dca565b9050919050565b6000602082019050818103600083015261320781612ded565b9050919050565b6000602082019050818103600083015261322781612e10565b9050919050565b6000602082019050818103600083015261324781612e33565b9050919050565b6000602082019050818103600083015261326781612e56565b9050919050565b6000602082019050818103600083015261328781612e79565b9050919050565b600060208201905081810360008301526132a781612e9c565b9050919050565b600060208201905081810360008301526132c781612ebf565b9050919050565b600060208201905081810360008301526132e781612ee2565b9050919050565b6000602082019050818103600083015261330781612f05565b9050919050565b6000602082019050818103600083015261332781612f28565b9050919050565b6000602082019050818103600083015261334781612f4b565b9050919050565b6000602082019050818103600083015261336781612f6e565b9050919050565b6000602082019050818103600083015261338781612f91565b9050919050565b600060208201905081810360008301526133a781612fb4565b9050919050565b600060208201905081810360008301526133c781612fd7565b9050919050565b600060208201905081810360008301526133e781612ffa565b9050919050565b6000602082019050613403600083018461302c565b92915050565b600060408201905061341e600083018561302c565b61342b602083018461302c565b9392505050565b600061343c61344d565b905061344882826136c0565b919050565b6000604051905090565b600067ffffffffffffffff82111561347257613471613798565b5b602082029050602081019050919050565b600067ffffffffffffffff82111561349e5761349d613798565b5b602082029050602081019050919050565b600067ffffffffffffffff8211156134ca576134c9613798565b5b6134d3826137e9565b9050602081019050919050565b600067ffffffffffffffff8211156134fb576134fa613798565b5b613504826137e9565b9050602081019050919050565b6000819050602082019050919050565b600081519050919050565b600081519050919050565b600081519050919050565b6000602082019050919050565b600082825260208201905092915050565b600082825260208201905092915050565b600082825260208201905092915050565b600061358d82613642565b915061359883613642565b9250827fffffffffffffffffffffffffffffffffffffffffffffffffffffffffffffffff038211156135cd576135cc61373a565b5b828201905092915050565b60006135e382613622565b9050919050565b60008115159050919050565b60007fffffffff0000000000000000000000000000000000000000000000000000000082169050919050565b600073ffffffffffffffffffffffffffffffffffffffff82169050919050565b6000819050919050565b82818337600083830152505050565b60005b8381101561367957808201518184015260208101905061365e565b83811115613688576000848401525b50505050565b600060028204905060018216806136a657607f821691505b602082108114156136ba576136b9613769565b5b50919050565b6136c9826137e9565b810181811067ffffffffffffffff821117156136e8576136e7613798565b5b80604052505050565b60006136fc82613642565b91507fffffffffffffffffffffffffffffffffffffffffffffffffffffffffffffffff82141561372f5761372e61373a565b5b600182019050919050565b7f4e487b7100000000000000000000000000000000000000000000000000000000600052601160045260246000fd5b7f4e487b7100000000000000000000000000000000000000000000000000000000600052602260045260246000fd5b7f4e487b7100000000000000000000000000000000000000000000000000000000600052604160045260246000fd5b600060033d11156137e65760046000803e6137e36000516137fa565b90505b90565b6000601f19601f8301169050919050565b60008160e01c9050919050565b7f455243313135353a207472616e7366657220746f206e6f6e204552433131353560008201527f526563656976657220696d706c656d656e746572000000000000000000000000602082015250565b7f455243313135353a204552433131353552656365697665722072656a6563746560008201527f6420746f6b656e73000000000000000000000000000000000000000000000000602082015250565b7f5061757361626c653a206e6f7420706175736564000000000000000000000000600082015250565b7f455243313135353a2062616c616e636520717565727920666f7220746865207a60008201527f65726f2061646472657373000000000000000000000000000000000000000000602082015250565b7f4f776e61626c653a206e6577206f776e657220697320746865207a65726f206160008201527f6464726573730000000000000000000000000000000000000000000000000000602082015250565b7f455243313135353a206275726e20616d6f756e7420657863656564732062616c60008201527f616e636500000000000000000000000000000000000000000000000000000000602082015250565b7f455243313135353a2063616c6c6572206973206e6f74206f776e6572206e6f7260008201527f20617070726f7665640000000000000000000000000000000000000000000000602082015250565b7f5061757361626c653a2070617573656400000000000000000000000000000000600082015250565b7f455243313135353a207472616e7366657220746f20746865207a65726f20616460008201527f6472657373000000000000000000000000000000000000000000000000000000602082015250565b7f455243313135353a207472616e736665722063616c6c6572206973206e6f742060008201527f6f776e6572206e6f7220617070726f7665640000000000000000000000000000602082015250565b7f455243313135353a206275726e2066726f6d20746865207a65726f206164647260008201527f6573730000000000000000000000000000000000000000000000000000000000602082015250565b7f455243313135353a20696e73756666696369656e742062616c616e636520666f60008201527f72207472616e7366657200000000000000000000000000000000000000000000602082015250565b7f4f776e61626c653a2063616c6c6572206973206e6f7420746865206f776e6572600082015250565b7f4e65656420746f2073656e6420302e3120455448000000000000000000000000600082015250565b7f455243313135353a2073657474696e6720617070726f76616c2073746174757360008201527f20666f722073656c660000000000000000000000000000000000000000000000602082015250565b7f455243313135353a206163636f756e747320616e6420696473206c656e67746860008201527f206d69736d617463680000000000000000000000000000000000000000000000602082015250565b7f455243313135353a2069647320616e6420616d6f756e7473206c656e6774682060008201527f6d69736d61746368000000000000000000000000000000000000000000000000602082015250565b7f455243313135353a206d696e7420746f20746865207a65726f2061646472657360008201527f7300000000000000000000000000000000000000000000000000000000000000602082015250565b600060443d1015613d0d57613d90565b613d1561344d565b60043d036004823e80513d602482011167ffffffffffffffff82111715613d3d575050613d90565b808201805167ffffffffffffffff811115613d5b5750505050613d90565b80602083010160043d038501811115613d78575050505050613d90565b613d87826020018501866136c0565b82955050505050505b90565b613d9c816135d8565b8114613da757600080fd5b50565b613db3816135ea565b8114613dbe57600080fd5b50565b613dca816135f6565b8114613dd557600080fd5b50565b613de181613642565b8114613dec57600080fd5b5056fea2646970667358221220049021cc797ee4db75622043717e39c852953b09bc47345d6bbeabf7f785aa4364736f6c6343000802003368747470733a2f2f6f6363617a776f74713235372e7573656d6f72616c69732e636f6d2f7b69647d2e6a736f6e",
  "immutableReferences": {},
  "source": "// SPDX-License-Identifier: MIT\r\npragma solidity ^0.8.2;\r\n\r\nimport \"@openzeppelin/contracts/token/ERC1155/ERC1155.sol\";\r\nimport \"@openzeppelin/contracts/access/Ownable.sol\";\r\nimport \"@openzeppelin/contracts/security/Pausable.sol\";\r\nimport \"@openzeppelin/contracts/token/ERC1155/extensions/ERC1155Burnable.sol\";\r\n\r\n/// @custom:security-contact coups@climateguardians.io\r\ncontract ClimateHeroV4 is ERC1155, Ownable, Pausable, ERC1155Burnable {\r\n\r\n    uint256 public constant CURUPIRA = 0;\r\n    uint256 public constant NAIARA = 1;\r\n    uint256 public constant BOLSO = 2;\r\n\r\n    constructor() ERC1155(\"https://occazwotq257.usemoralis.com/{id}.json\") {\r\n      _mint(msg.sender, CURUPIRA, 1, \"\");\r\n      _mint(msg.sender, NAIARA, 2, \"\");\r\n      _mint(msg.sender, BOLSO, 3, \"\");\r\n    }\r\n\r\n    function setURI(string memory newuri) public onlyOwner {\r\n        _setURI(newuri);\r\n    }\r\n\r\n    function pause() public onlyOwner {\r\n        _pause();\r\n    }\r\n\r\n    function unpause() public onlyOwner {\r\n        _unpause();\r\n    }\r\n\r\n    function mint(uint256 id, uint256 amount)\r\n        public\r\n        payable\r\n    {\r\n        require(msg.value == 0.1 ether, 'Need to send 0.1 ETH');\r\n        _mint(msg.sender, id, amount, \"\");\r\n    }\r\n\r\n    function _beforeTokenTransfer(address operator, address from, address to, uint256[] memory ids, uint256[] memory amounts, bytes memory data)\r\n        internal\r\n        whenNotPaused\r\n        override\r\n    {\r\n        super._beforeTokenTransfer(operator, from, to, ids, amounts, data);\r\n    }\r\n}",
  "sourcePath": "C:\\Users\\racou\\source\\Moralis\\Hackathon\\ethereum-boilerplate\\Truffle\\contracts\\ClimateHeroV4.sol",
  "compiler": {
    "name": "solc",
    "version": "0.8.2+commit.661d1103.Emscripten.clang"
  },
  "schemaVersion": "3.4.3",
  "updatedAt": "2022-01-22T21:53:07.087Z",
  "networkType": "ethereum",
  "devdoc": {
    "custom:security-contact": "coups@climateguardians.io",
    "kind": "dev",
    "methods": {
      "balanceOf(address,uint256)": {
        "details": "See {IERC1155-balanceOf}. Requirements: - `account` cannot be the zero address."
      },
      "balanceOfBatch(address[],uint256[])": {
        "details": "See {IERC1155-balanceOfBatch}. Requirements: - `accounts` and `ids` must have the same length."
      },
      "isApprovedForAll(address,address)": {
        "details": "See {IERC1155-isApprovedForAll}."
      },
      "owner()": {
        "details": "Returns the address of the current owner."
      },
      "paused()": {
        "details": "Returns true if the contract is paused, and false otherwise."
      },
      "renounceOwnership()": {
        "details": "Leaves the contract without owner. It will not be possible to call `onlyOwner` functions anymore. Can only be called by the current owner. NOTE: Renouncing ownership will leave the contract without an owner, thereby removing any functionality that is only available to the owner."
      },
      "safeBatchTransferFrom(address,address,uint256[],uint256[],bytes)": {
        "details": "See {IERC1155-safeBatchTransferFrom}."
      },
      "safeTransferFrom(address,address,uint256,uint256,bytes)": {
        "details": "See {IERC1155-safeTransferFrom}."
      },
      "setApprovalForAll(address,bool)": {
        "details": "See {IERC1155-setApprovalForAll}."
      },
      "supportsInterface(bytes4)": {
        "details": "See {IERC165-supportsInterface}."
      },
      "transferOwnership(address)": {
        "details": "Transfers ownership of the contract to a new account (`newOwner`). Can only be called by the current owner."
      },
      "uri(uint256)": {
        "details": "See {IERC1155MetadataURI-uri}. This implementation returns the same URI for *all* token types. It relies on the token type ID substitution mechanism https://eips.ethereum.org/EIPS/eip-1155#metadata[defined in the EIP]. Clients calling this function must replace the `\\{id\\}` substring with the actual token type ID."
      }
    },
    "version": 1
  },
  "userdoc": {
    "kind": "user",
    "methods": {},
    "version": 1
  }
}